:400000000080002011000000CD200000CD20000080B500AF024A034B1B68136002F084F8BC760040FA46004010B5054C237833B9044B13B10448AFF300800123237010BDBF
:400040005887FF1F00000000AC750000084B10B51BB108490848AFF300800848036803B910BD074B002BFBD0BDE81040184700BF000000005C87FF1FAC750000C880FF1F94
:400080000000000080B58EB000AF02F09DFE02F023FC02F021F903F0D5FA03F05FFC03F019FE04F03BFA03F0E5FC03F095FD04F0C9F9474800F0CEF900F0B4F903F02AFB27
:4000C00003F0B2F962B603F01FFE04F0F1F804F041F804F093F801F0E1F801F03FFA01F051FA3B4801F0B6FA394800F03BFD384B9B7B012BF5D1012002F070F9344B1B789B
:40010000012B0BD0022B11D0002B17D10021002002F0F4F82F4802F029F90FE00021002002F0ECF82C4802F021F907E00021002002F0E4F8294802F019F900BF00210120FB
:4001400002F0DCF8224B5B781A4607F124032449184605F047FE07F12403184602F006F91B4B93F90D301A4607F124031C49184605F038FE0F21012002F0C0F807F12403D1
:40018000184602F0F3F8124B1B7D022B13D1104B93F8A83187F837300521002002F0AEF897F837203B460F49184605F01BFE3B46184602F0DBF8064B1B7D012B91D105210F
:4001C000002002F09BF8084802F0D0F889E700BFDC87FF1FB0750000B8750000C0750000C8750000CC750000D875000080B485B000AF78607B681B687A68928813441B7812
:40020000FB737B689B8802339AB27B689A807B689B887A68D288B3FBF2F102FB01F29B1A9AB27B689A80FB7B18461437BD4680BC704700BF80B400AF094B00229A80094B70
:4002400000229A80084B00229A80084B00229A80074B00229A8000BFBD4680BC704700BF7881FF1F1882FF1FA882FF1F2083FF1F0885FF1F80B584B000AF0346FB7197F942
:400280000730184600F014F8002000F047F80A2004F05EF900F056F80346FB81012000F03DF8B7F90E3018461037BD4680BD00BF80B584B000AF0346FB71FB7903F00F03C8
:4002C000FB73FB7B03F00103DBB2184603F0CEFA97F90F305B105BB2DBB203F00103DBB2184603F087FA97F90F309B105BB2DBB203F00103DBB2184603F09AFA97F90F3007
:40030000DB105BB2DBB203F00103DBB2184603F0C9FA00BF1037BD4680BD00BF80B582B000AF0346FB7197F90730002B03D1002003F0D6FA02E0012003F0D2FA00BF083767
:40034000BD4680BD80B582B000AF0C4A0B4B1B78DBB243F00403DBB2137002F0D5FA002002F0F2FA02F0E0FA02F014FB0346FB80B7F9063018460837BD4680BD014E00406F
:4003800080B582B000AF78607B6800221A7303F0BFF803461A467B681A607B6801221A717B6800229A6000BF0837BD4680BD00BF80B584B000AF78600B46FB70FB78002B36
:4003C00014BF01230023DBB2FB737B681B79FA7B9A420CD07B68FA7B1A7103F039FC03461A467B681A607B6801221A7315E07B681B7B012B11D17B6800221A73FB7B012BF0
:4004000004D17B689B685A1C7B689A60FB7B012B01D1032302E0022300E0FB7B18461037BD4680BD80B500AF0648FFF7A9FF0648FFF7A6FF0548FFF7A3FF0548FFF7A0FF52
:4004400000BF80BDDC89FF1FBC89FF1FCC89FF1FCC87FF1F80B584B000AF78607B6802221A707B6800229A700023FB600BE07A68FB681344033313221A707B6801225A7359
:40048000FB680133FB60FB68092BF0DD7B680A225A707B6800229A737B684FF07E521A617B6800221A75786800F008F8786800F055F800BF1037BD4680BD00BF80B485B09F
:4004C00000AF78600023FB602BE00023BB600EE07968FA6813469B0013449B00CA18BB681344183313221A70BB680133BB60BB68092BEDDD7968FA6813469B0013449B0075
:400500000B44223301221A707968FA6813469B0013449B000B44223364221A70FB680133FB60FB68132BD0DD7B68002283F8A8217B680022C3F8AC217B68002283F8B02126
:400540007B68002283F8B1217B68002283F8B22100BF1437BD4680BC704700BF80B485B000AF78607B6803F5DA73BB60BB6801229A72BB680022DA60BB6800221A61002330
:40058000FB6007E0BA68FB68134413221A70FB680133FB60FB68092BF4DDBB6800225A75BB680E4A9A61BB680022DA61BB684FF47A721A62BB684FF416725A62BB6800223D
:4005C00083F82820BB68002283F82920BB6800221A7500BF1437BD4680BC70476666663F80B584B000AF786003F098F9034619461148FFF7DDFE0346FB7303F09FF9034619
:4006000019460E48FFF7D4FE0346BB73FB7B002B03D17B6800221A7009E0BB7B002B03D17B6801221A7002E07B6802221A7000BF1037BD4680BD00BFDC89FF1FBC89FF1FB6
:4006400080B584B000AF786003F058FA034619462548FFF7ADFE0346FB7303F05FFA034619462248FFF7A4FE0346BB7303F0DAFC0346DBB219461E48FFF79AFE03467B7342
:40068000FB7B032B0CD17868FFF718FF7B681B7D022B01D1002200E002227B681A751FE0BB7B032B0BD17B681B7D022B03D17B6803221A7514E07B6800221A7510E07B7BFA
:4006C000032B0DD17B681B7D012B03D17B6800221A7505E07868FFF741FF7B6801221A7500BF1037BD4680BDCC89FF1FCC87FF1FBC87FF1F80B483B000AF03460A46FB71A9
:400700001346BB80B7F90430272B01DC0A2330E097F90730092B2BD801A252F823F000BF490700004D0700005107000055070000590700005D070000610700006507000028
:40074000690700006D070000002312E0012310E002230EE003230CE004230AE0052308E0062306E0072304E0082302E0092300E00A2318460C37BD4680BC704780B586B0C1
:4007800000AF78607B681B78022B03D17B680A225A702EE04FF6F673FB82FF237B7500233B6113E03B695BB21846FFF763FD0346FB81B7F90E20B7F916309A4203DD3B6907
:4007C0007B75FB89FB823B6901333B613B69092BE8DDB7F91630642B0BDDB7F9162097F9153011461846FFF785FF03461A467B685A701837BD4680BD80B485B000AF7860CB
:4008000039607B685A783B685A707B681A783B681A707B6893F902203B689A700023FB600DE07A68FB681344033319783A68FB68134403330A461A70FB680133FB60FB688E
:40084000092BEEDD7B6893F90D203B685A737B689A7B3B689A737B681A693B681A6100BF1437BD4680BC704780B584B000AF786039607B685A783B685B789A4201D00123BC
:4008800040E07B681A783B681B789A4201D0012338E07B6893F902203B6893F902309A4201D001232EE00023FB6010E07A68FB68134403331A783968FB680B4403331B78C5
:4008C0009A4201D001231DE0FB680133FB60FB68092BEBDD7B6893F90D203B6893F90D309A4201D001230DE07B681A693B681B691946104604F04EFD0346002B01D1012328
:4009000000E0002318461037BD4680BD80B584B000AF786003F0D2FA002003F0EFFA03F00DFB0346FB7303F0D9FAFB7B5B080A4AA2FB03239B08DBB20133BB73BB7B062BC3
:4009400028BF0623BB7397F90E207B685A7300BF1037BD4680BD00BF310CC33090B587B000AF78607B681B78022B03D07B685B780A2B03D1786800F0DDF862E00023FB75E4
:4009800001237B757B6893F90D303B757B685B78FB743B7D5B08DBB2BB74BB7CFA7CD31ADBB27B7497F9113023EAE3735BB23B74BA7CFB7C1344DBB2FB733B7D03F0010317
:4009C000DBB2002B04D1FB7B013BDBB25BB201E097F90F30FB7397F90F30092BA8BF09235BB2BB733B7CBB7525E0FC7D7B681A78BB7D1146184600F029F803461A467B68CB
:400A00002344DA70FB7D0233DBB21946012001F075FCBA7D07F108030B49184605F0E2F907F10803184601F0A1FCFB7D0133FB75BB7D0133BB75BA7DBB7B01339A42D4DB5A
:400A400000BF1C37BD4690BDE075000080B483B000AF03460A46FB711346BB71BB79022B01D1132361E0FB79092B5DD801A252F823F000BF9D0A0000AB0A0000B90A0000BA
:400A8000C70A0000D50A0000E30A0000F10A0000FF0A00000D0B00001B0B0000BB79002B14BF01230023DBB23FE0BB79002B01D102233AE0032338E0BB79002B01D103232D
:400AC00033E0052331E0BB79002B01D106232CE007232AE0BB79002B01D1082325E0092323E0BB79002B01D104231EE00B231CE0BB79002B01D10C2317E00D2315E0BB7950
:400B0000002B01D10E2310E00F230EE0BB79002B01D10A2309E0102307E0BB79002B01D1112302E0122300E0132318460C37BD4680BC704780B485B000AF78600023FB607F
:400B400008E07A68FB681344033313221A70FB680133FB60FB68092BF3DD00BF1437BD4680BC704780B5FAB000AF3B1D18603B1D1B6800229A7307F108023B1D114618680A
:400B8000FFF73AFE3B1D1868FFF72AFD3B1D1868FFF756FD3B1D1868FFF7F0FD3B1D1868FFF7B4FE3B1D1868FFF7D8FE07F108023B1D11461868FFF757FE03461A463B1D95
:400BC0001B689A733B1D1B689B7B002B01D0FFF731FB3B1D186800F005F800BF07F5F477BD4680BD90B587B000AF78607B681B7D012B70D0022B00D0BCE07B689B7B002B84
:400C000000F0B5807B6893F8B031012B30D17B6893F8A83119467A680B469B000B449B00134428331B687B617B6893F8A8311C4603F00EF802467B69D21A796823469B0005
:400C400023449B000B4424331A607B6893F8A8315A1C4A4B83FB0213D910D317C91A0B469B000B449B00D11ACAB27B6883F8A8217B6893F8A831FB74FA7C13469B001344DC
:400C80009B0018337A68D0187B68D91C7B6893F90D30DBB21A4600F075F8FA7C7B6893F90D00796813469B0013449B000B44223302461A70FC7C02F0CBFF01467A682346C1
:400CC0009B0023449B001344283319607B68012283F8B0214BE07B689B7B002B49D07B6803F5DA73FB60786800F082FA0346002B1AD1F8687B68D91C7B6893F90D30DBB2D3
:400D00001A4600F03FF87B6893F90D20FB689A7202F09EFF0246FB681A61FB6801221A75FB6800225A7524E0FB681B7D012B20D1FB6800221A7502F08BFF0246FB681B6928
:400D4000D31A3C2B15D9FB6801225A7502F080FF0246FB68DA61FB68002283F82820FB68002283F82920FB68054A9A6101E000BF00E000BF00BF1C37BD4690BD676666660D
:400D80006666663F80B487B000AFF860B9601346FB7100237B610AE07B69FA6813447A69B9680A4412781A707B6901337B61FA797B699A42F0DC00BF1C37BD4680BC70478B
:400DC00090B585B000AF78607B6803F5DA73FB607B681B7D032B00F29A8001A252F823F0F10D0000FB0D0000F50E0000FF0E0000786800F019FA03468AE0FB685B7D002BA8
:400E000004D1786800F010FA034681E0FB6893F82830002B14D102F01BFF0246FB68DB69D21AFB681B6A9A4208D9FB68012283F8282002F00DFF0246FB68DA61002367E0E0
:400E4000FB6893F82830012B60D102F001FF0246FB68DB69D21AFB685B6A9A421BD902F0F7FE0246FB68DA61FB68002283F82820FB6893F829300133DAB2FB6883F82920C7
:400E8000FB689B694FF07F51184604F0A3F903461A46FB689A61FB6893F82930092B1AD8FB689C69FA68FB6893F90A30DBB21946104600F0AFF80346184604F083F803462F
:400EC0001946204604F0D2F80346184604F0BAFA0346DBB21CE0FB6800225A75FB6800221A75FB68002283F82920FB680A4A9A6100230DE0786800F097F9034608E078686A
:400F000000F00CF80346FB72FB7A01E000BF002318461437BD4690BD6666663F80B58AB000AF78607B6818337B627B6A93F89931002B17D17B6A012283F8992102F088FE62
:400F400002467B6AC3F894217B6A93F890310233DAB27B6A83F89A217B6A002283F89021FFF768F97B6AD3F894313B627B6A93F8903119467A6A0B469B000B449B0013448A
:400F80000C331B68FB6102F063FEB861BA693B6AD21AFB699A421CD97B6A93F890310133DAB27B6A83F890217B6A93F890217B6A93F89A319A4204D37B6800221A750023F6
:400FC00024E0FFF737F902F043FE02467B6AC3F894217B6A93F89031FB75FA7D13469B0013449B007A6A13443B61FA7D796A13469B0013449B000B440A3393F90030FB732C
:40100000FB7B1946386900F005F8034618462837BD4680BD80B584B000AF78600B46FB700023FB8100237B73ADE000233B737B7B7A6813441B78122B00F29C8001A252F853
:4010400023F000BF911000009D100000B5100000A91000005D110000C1100000CD100000D9100000E5100000F1100000FD10000009110000151100006911000021110000DE
:401080002D1100003911000045110000511100004448FFF7ABF803463B736CE04248FFF7A5F803463B7366E04048FFF79FF803463B7360E03E48FFF799F803463B735AE0A4
:4010C0003C48FFF793F803463B7354E03A48FFF78DF803463B734EE03848FFF787F803463B7348E03648FFF781F803463B7342E03448FFF77BF803463B733CE03248FFF71C
:4011000075F803463B7336E03048FFF76FF803463B7330E02E48FFF769F803463B732AE02C48FFF763F803463B7324E02A48FFF75DF803463B731EE02848FFF757F803461B
:401140003B7318E02648FFF751F803463B7312E02448FFF74BF803463B730CE02248FFF745F803463B7306E02048FFF73FF803463B7300E000BF3B7B9AB2FB891344FB81AD
:401180007B7B01337B737A7BFB789A42FFF44DAFFA89FB7892FBF3F3DBB218461037BD4680BD00BF7881FF1F1882FF1F2083FF1FA882FF1F8483FF1FE083FF1F3484FF1FF6
:4011C0008084FF1FC884FF1F3086FF1F4485FF1F7885FF1FDC85FF1F0C86FF1F5886FF1F7886FF1F9C86FF1F0885FF1FB085FF1F80B485B000AF78600023FB600BE07A68CD
:40120000FB68134403331B78132B01D0002306E0FB680133FB60FB68092BF0DD012318461437BD4680BC704780B584B000AF78607B680333FB607B6893F90D30FB727B689A
:401240001B78022B01D1002305E0FB7A1946F868FFF7E0FE034618461037BD4680BD00BF80B582B000AF0346FB71002002F008FF002002F0E7FEFB79184602F0A5FF00BFDD
:40128000054B1B68002BFBD0034B00221A6000BF0837BD4680BD00BFAC87FF1F80B582B000AF002002F0CEFEAE20FFF7D9FFA020FFF7D6FF7220FFF7D3FFA120FFF7D0FF32
:4012C0000020FFF7CDFFA220FFF7CAFF0020FFF7C7FFA420FFF7C4FFA820FFF7C1FF3F20FFF7BEFFAD20FFF7BBFF8E20FFF7B8FFB020FFF7B5FF0B20FFF7B2FFB120FFF7B7
:40130000AFFF1120FFF7ACFFB320FFF7A9FFF020FFF7A6FF8A20FFF7A3FF6420FFF7A0FF8B20FFF79DFF7820FFF79AFF8C20FFF797FF6420FFF794FFBB20FFF791FF3A2052
:40134000FFF78EFFBE20FFF78BFF3E20FFF788FF8720FFF785FF0620FFF782FF8120FFF77FFFFF20FFF77CFF8220FFF779FFFF20FFF776FF8320FFF773FFFF20FFF770FF25
:401380002E20FFF76DFFAF20FFF76AFF00F0E6F800237B6007E0074A7B68134400221A707B6801337B607B68FE2BF4DD00BF0837BD4680BDEC89FF1F90B583B000AF044654
:4013C000084611461A462346FB710346BB710B467B7113463B71002002F034FEFB795F2B01D95F23FB71BB793F2B01D93F23BB717B795F2B01D95F237B713B793F2B01D98E
:401400003F233B712120FFF72BFFFB791846FFF727FFBB791846FFF723FF7B791846FFF71FFF3B791846FFF71BFF3B8BDB0A9BB2DBB203F01F03DBB21846FFF711FF3B8BCC
:401440005B099BB2DBB203F03F03DBB21846FFF707FF3B8BDBB203F01F03DBB21846FFF7FFFE0C37BD4690BD90B583B000AF0446084611461A462346FB710346BB710B4628
:401480007B7113463B71002002F0DCFDFB795F2B01D95F23FB71BB793F2B01D93F23BB717B795F2B01D95F237B713B793F2B01D93F233B712620FFF7D3FE0120FFF7D0FEC6
:4014C0002220FFF7CDFEFB791846FFF7C9FEBB791846FFF7C5FE7B791846FFF7C1FE3B791846FFF7BDFE3B8BDB0A9BB2DBB203F01F03DBB21846FFF7B3FE3B8B5B099BB2A2
:40150000DBB203F03F03DBB21846FFF7A9FE3B8BDBB203F01F03DBB21846FFF7A1FEBB8BDB0A9BB2DBB203F01F03DBB21846FFF797FEBB8B5B099BB2DBB203F03F03DBB2A3
:401540001846FFF78DFEBB8BDBB203F01F03DBB21846FFF785FE0C37BD4690BD80B582B002AF002002F06EFD00230193002300934023602200210020FFF776FF00BFBD4658
:4015800080BD00BFB0B582B000AF00237B600CE022497A6813469B0013449B000B44033300221A707B6801337B6003231A467B689A42EDDC1A4B03221A70194B04225A7033
:4015C000174B01229A70164B0122DA70144B5B78184600F027F803461A46114B1A71104B00229A600E4B02221A730D4B03225A730B4B04229A730A4B0522DA73084B1922B4
:40160000DA74064A064B14461D460FCD0FC42B68236000BF0837BD46B0BD00BFEC8AFF1F288BFF1F80B483B000AF0346FB71FB79092B01D9FF2307E0FB791A469200134494
:401640005B00DBB20333DBB218460C37BD4680BC704700BF80B582B000AF786002F0F8FA0246174B1B68D31A642B25D9FFF776FF012001F031FE4FF6FF7000F027F8012060
:4016800001F02AFE4FF6FF7000F042F8012001F023FE0C4800F0CCF80A4800F0E9F9786800F030FA084B1B680133074A136002F0CFFA0246024B1A6000BF0837BD4680BD04
:4016C0007487FF1FEC8AFF1F7887FF1F80B588B002AF0346FB800323FB750A23FB7300233B610EE0FA7DF87DFB88009340230021FFF762FEFA7DFB7B1344FB753B690133F8
:401700003B613B69092BEDDD00BF1837BD4680BD80B586B002AF0346FB803723FB73FA7BF97BFB880093134660220020FFF744FE00BF1037BD4680BD90B58BB002AF7860F4
:4017400039607B68DB78002B6ED07B689B68DB0FDBB2FB75FB7D002B03D17B689B68DBB200E00023BB75FB7D002B08D07B689B68DAB27B68DB7C1344DBB25BB205E07B6867
:40178000DA7CBB7D1344DBB25BB27B7597F9153023EAE3735BB23B75BB7D372B04D83B7D372B01D9012300E00023FB74786800F077F803463B82FB7C002B02D13B8AFB83C8
:4017C0000CE07968386800F07DF80346012B02D14FF4FC6301E04FF47143FB830023BB611BE07A68BB6913440D331B781846FFF719FF0346023BFB73FB7B0433BB733C7D79
:40180000BA7BB97DF87B3B8A0193FB8B00932346FFF72AFEBB690133BB617B681B781A46BB699A42DDDC00E000BF2437BD4690BD80B485B000AF7860184B1B68022B28D980
:401840000023FB601DE0FA6813469B0013449B001A467B681344BB60BB68DB78012B0DD1BB689B68BA68127B1A44BB689A60BB689B68402B02DDBB680022DA70FB6801338A
:40188000FB6003231A46FB689A42DCDC034B00221A6000BF1437BD4680BC70477887FF1F80B483B000AF78607B689B78002B01D11F2301E04AF21F0318460C37BD4680BC07
:4018C000704700BF80B485B000AF786039607B6893F90D30FB737B685B78BB733B681B78FA7B9A4210D13B685B78BA7B9A420BD17B681B7D002B07D17B681A783B689B7877
:401900009A4201D1012300E00023DBB218461437BD4680BC704700BF90B585B000AF786002F096F90146354BA3FB0123DA0813469B0013445B00CA1A1346FB737B68FA7B51
:401940005A707B685B78C3F10B03BB737B685B7801337B737A7BBB7B934228BF13463B7302F076F902463B7BB2FBF3F103FB01F3D31ADBB20133DAB27B681A7002F0AEFD0B
:40198000034603F001039BB2002B0CBF01230023DBB21A467B689A707B680122DA707B685B781846FFF73EFE03461A467B681A717B686FF018029A607B6802221A7378680C
:4019C00000F01EF802F044F90346DCB202F086FD0346DBB203FB04F3DBB203F00F03DBB20F33DAB27B68DA747B68DB7C184601F073FC00BF1437BD4690BD00BFCDCCCCCC3B
:401A000080B485B000AF78607B681B785B08BB737B685B787B737A7BBB7BD31ADBB23B7397F90C3023EAE373FB727B681A78F97A3B7BCB1ADBB21344DAB27B681A70002399
:401A4000FB730BE0FB7BF97AFA7B0A44D1B27A6813440A465A73FB7B0133FB737B681B78FA7B9A42EED900BF1437BD4680BC704780B588B000AF78600123FB770023BB6119
:401A800015E0BA6913469B0013449B001A467B6813443B613B699B680E2B05DC3B69DB78012B01D10023FB77BB690133BB6103231A46BB699A42E4DC00237B6119E07A6912
:401AC00013469B0013449B001A467B681344FB60FB68DB78002B09D1FB7F002B06D0FB680122DA70F868FFF717FF07E07B6901337B6103231A467B699A42E0DC2037BD4662
:401B000080BD00BF80B584B000AF78600023FB600DE0FA6813469B0013449B00084A134479681846FFF708FEFB680133FB6003231A46FB689A42ECDC00BF1037BD4680BD5D
:401B4000EC8AFF1F80B582B000AF786039603A680021786803F0CDFC00BF0837BD4680BD80B584B000AFF860B9607A607A68B968F86803F0B3FC00BF1037BD4680BD00BF40
:401B800080B483B000AF0346FB71FEE780B487B000AF7860396000233B6100237B6127E07B699B007A6813441B68BB60BB68FB73BB6823F0FF03BB6014E03B695B003A6856
:401BC00013441B781A46BB68134419463B695B003A6813445B780B703B6901333B61FB7B013BFB73FB7B002BE7D17B6901337B617B69212BD4D900BF1C37BD4680BC7047B6
:401C000080B582B000AF4A4B00221A80494B50221A70494B0B221A80484B18221A70484B40F2AF421A80474B18221A70464B45F6BF521A80454B18221A70454B45F6BF52AE
:401C40001A80444B18221A70082243494348FFF787FF434B02221A704FF0402308221A70404B03221A70404B404A1278D2B21A703F4B08221A803F4B41F251221A80002306
:401C8000FB7019237B6014E0FB785B00DAB23A4B1B78DBB203F00103DBB21343DBB203F00303FB704FF4F07002F052FC7B68013B7B607B68002B02D0FB78032BE4D17B68EE
:401CC000002B02D10320FFF75BFF2C4B4FF480721A802A4B07221A70294B00221A70294B48221A70254B00221A70274B02221A70264B04221A70264A254B1B78DBB243F0ED
:401D00001F03DBB21370234A224B1B78DBB243F00303DBB21370204A1F4B1B78DBB263F07F03DBB2137000BF0837BD4680BD00BF804000408240004084400040864000404C
:401D4000884000408A4000408C4000408E4000409040004092400040F8050048004100400043004000420040A1460040080100492242004020420040254200400440004060
:401D80000640004008400040014000400B400040A2430040A1430040A043004080B582B000AF274B1B78FB71264B1B78BB71264B1B787B71254AFB7903F00703DBB2137006
:401DC000234AFB791B09DBB213701E4ABB7943F00303DBB213701C4A7B7943F00303DBB213701C4B01221A701B4B40221A701B4B20221A701A4B40221A701A4B40221A700C
:401E0000194B01221A70194B10221A70184B02221A70184B20221A70174B02221A700A2001F07CFA084A7B791370064ABB791370124B44221A7000BF0837BD4680BD00BF76
:401E4000CF010049F8460040F94600406E5800406F5800400D5100401C5100406D510040095900400B5900409B5A0040005B0040285B00402B5B0040585B00407658004056
:401E800080B483B000AF0346FB71FB79012B0ED8FB79094A52F82330FA79074951F822201178FA790548825C0A43D2B21A7000BF0C37BD4680BC7047E4750000EC750000EB
:401EC00080B483B000AF0346FB71FB79012B10D8FB790A4A52F82330FA79084951F822201178FA790648825CD243D2B20A40D2B21A7000BF0C37BD4680BC7047E475000071
:401F0000EC75000080B586B000AF72B6554A554B1B78DBB243F00403DBB213700023FB7513E0FA7D13465B0013445B004E4A13443B613B691A683B699B889BB21946104678
:401F4000FFF700FEFB7D0133FB75FB7D092BE8D90023FB751CE0FA7D13469B0013445B00424A1344FB60FB681B68BB60FB685B687B60FB681A7A5B7A1B0213437B807B88BB
:401F80001A467968B868FFF7EBFDFB7D0133FB75FB7D002BDFD036494FF09040FFF7F6FD344B0A221A70344B01221A70334A334B1B78DBB243F00203DBB21370304A304B44
:401FC0001B78DBB243F00203DBB213702D4A2D4B1B78DBB243F04003DBB213702A4A2A4B1B78DBB243F01003DBB21370082227492748FFF7B5FD082226492748FFF7B0FD29
:40200000082226492648FFF7ABFD0A2225492648FFF7A6FD082225492548FFF7A1FD0A2224492548FFF79CFD244A244B1B78DBB243F00803DBB21370214B61221A70FFF772
:40204000DFFD1F4B81221A701E4B01221A70FFF7A5FE0E220B491C48FFF782FD00BF1837BD4680BDE8460040F07500002C7600008800004883580040075B004003500140FD
:4020800013500140A0430040C2430040C005004802510040C805004812510040D005004822510040D805004830510040E405004842510040EC050048605100402243004033
:4020C0000048004004000840B043004080B400AFFEE700BF80B584B000AF7860104B1A687B6813441A460F4BD31AB3F5B07F09DC0B4B1B68FB600A4B1A687B681344084A51
:40210000136007E003F0BEF902460C2313604FF0FF33FB60FB6818461037BD4680BD00BFA486FF1F588BFF1F80B586B000AF224B7B61224B3B61204B7B6135E03B691B68A6
:40214000FB603B695B68BB603B699B683B6000237B600CE0FB681A68BB681A60BB680433BB60FB680433FB607B6804337B607A683B689A42EED13B69DB683B6000237B60D5
:4021800008E0BB6800221A60BB680433BB607B6804337B607A683B689A42F2D13B6910333B617B69013B7B617B69002BC6D103F06FF9FDF767FFFEE7010000002078000092
:4021C00080B582B000AF184B184A1A60184A184B1B6843F40073136000237B600FE07B68032B04D8134A7B6852F8233000E0124B12497A6841F822307B6801337B607B6894
:402200002F2BECD90E4B1B78DAB20E4B1A700E4B0A4A1A60FFF776FE0C4B00221A6000BF0837BD4680BD00BF0CED00E00004FA0514ED00E000000000CD2000000080FF1F5B
:40224000BC760040C480FF1F08ED00E0C080FF1F80B500AF282001F03FF8032000F0D0F9052001F039F8032000F0CAF90F2001F033F8032000F0C4F9012001F02DF8022096
:4022800000F0BEF9052001F027F8062000F0A6F80E2000F0A3F82C2000F0A0F8082000F09DF8012000F09AF80C2000F097F8032000F094F8052001F00FF800BF80BD00BF8F
:4022C00080B500AF0C2000F089F8024B01221A7000BF80BD7C87FF1F80B500AF064B1B78002B04D1FFF7B4FF034B01221A70FFF7E7FF00BF80BD00BF7D87FF1F80B582B0BA
:4023000000AF03460A46FB711346BB71FB79032B26D801A252F823F029230000372300004523000053230000BB79803BDBB2184600F054F815E0BB79403BDBB2184600F0AB
:402340004DF80EE0BB796C3BDBB2184600F046F807E0BB792C3BDBB2184600F03FF800E000BF00BF0837BD4680BD00BF80B584B000AF78600123FB737B681B78BB730BE0F5
:40238000BB7B184600F010F8FB7B7A6813441B78BB73FB7B0133FB73BB7B002BF0D100BF1037BD4680BD00BF80B584B000AF0346FB7100F02DF8FB791B09FB73FB7B184626
:4023C00000F0E2F8FB7903F00F03FB73FB7B184600F0DAF800BF1037BD4680BD80B584B000AF0346FB7100F013F8FB791B09FB73FB7B184600F004F9FB7903F00F03FB73DA
:40240000FB7B184600F0FCF800BF1037BD4680BD80B582B000AF4FF4CA737B60554A554B1B78DBB223F07F03DBB21370524B1B78DBB223F00F03FB704F4AFB7843F00F038B
:40244000DBB213704D4B1B78DBB223F00F03FB704A4AFB7813704A4B1B78DBB223F00F03FB70474AFB781370424A424B1B78DBB223F02003DBB213703E4A3E4B1B78DBB2FE
:4024800043F04003DBB21370002000F047FF394A384B1B78DBB243F01003DBB21370012000F03CFF374B1B78FB70324A314B1B78DBB223F01003DBB21370002000F02EFF6D
:4024C000FB7803F00803FB702A4A2A4B1B78DBB243F01003DBB21370012000F01FFF254A244B1B78DBB223F01003DBB21370FB78002B02D10A2000F011FF7B68013B7B60A9
:40250000FB78002B02D07B68002BBDD1194A194B1B78DBB223F04003DBB21370154A154B1B78DBB223F07F03DBB21370124A124B1B78DBB223F00F03DBB213700F4B1B78C3
:40254000DBB223F00F03FB700C4AFB7843F00F03DBB213700A4B1B78DBB223F00F03FB70074AFB7843F00F03DBB2137000BF0837BD4680BD205100402251004023510040AC
:40258000245100402151004080B582B000AF0346FB711A4A194B1B78DBB243F02003DBB21370164A154B1B78DBB223F04003DBB21370002000F0B2FE104A104B1B78DBB2C0
:4025C00023F00F03DBB213700C490C4B1B78DAB2FB791343DBB243F01003DBB20B70012000F09CFE054A054B1B78DBB223F01003DBB2137000BF0837BD4680BD20510040A7
:4026000080B582B000AF0346FB71154A144B1B78DBB223F06003DBB21370114A104B1B78DBB223F00F03DBB213700D490C4B1B78DAB2FB791343DBB243F01003DBB20B70EF
:40264000012000F06BFE064A054B1B78DBB223F01003DBB2137000BF0837BD4680BD00BF2051004080B582B002AF324B01221A70314B00221A70102000F014FD102000F081
:40268000F7FD07211D2000F0ABFE2C4B04221A702B4B00221A702B4B00221A702A4A2A4B1B78DBB243F01803DBB21370274B00221A70274B00221A70264B00221A70264B8C
:4026C0000A221A70254B00221A70254B00221A70244B12221A70244B13221A70234B00221A70234B14221A70012300930A2347F606024FF40041032000F03CFA1D4A0D4B94
:402700001B78DBB2013B1C499B000B449B7813701A4A084B1B78DBB2013B174931F823301380044B1B78DBB2184600F071F900BFBD4680BDA886FF1F8087FF1F9658004011
:40274000975800409E580040075B004093580040885B0040895B004080580040815800408358004088580040895800408D580040014E00400E4E00408487FF1F0C4E004040
:4027800080B582B000AF01F0EBFE0346FB71444B1B78BB71434A434B1B78DBB243F00103DBB213703F4A3F4B1B78DBB243F01003DBB213703C4A3C4B1B78DBB243F00103B7
:4027C000DBB21370384A384B1B78DBB243F01003DBB21370354A354B1B78DBB243F00203DBB21370324A324B1B78DBB243F00203DBB213702F4A2F4B1B78DBB243F003033A
:40280000DBB21370032000F089FD284A274B1B78DBB223F00203DBB21370254A244B1B78DBB223F00203DBB21370234A224B1B78DBB243F00603DBB21370204B7A221A70C6
:402840001F4A1F4B1B78DBB243F00203DBB213701C4A1C4B1B78DBB243F00203DBB21370194A194B1B78DBB243F00103DBB21370164A164B1B78DBB243F00103DBB2137092
:40288000134B4FF000521A60124B4FF000521A60FB79184601F068FE00BF0837BD4680BDA886FF1FAA430040BA430040F8460040F9460040915800407758004082580040DB
:4028C000A1430040B1430040A2430040B243004080E200E000E100E080B500AF084B1B78002B09D1074B1B78DBB2002B01D1FFF7B9FE034B01221A70FFF742FF00BF80BD0A
:402900008287FF1F8387FF1F80B400AF054A054B1B78DBB243F00103DBB2137000BFBD4680BC7047004E004080B400AF054A054B1B78DBB223F00103DBB2137000BFBD4691
:4029400080BC7047004E004080B485B000AF0346FB710D4B1B78DBB2002B03D00B4B1B78FB7305E00A4B1B78DBB203F00103FB73FB7B012B02D0FB79002BEAD0FB7B1846DC
:402980001437BD4680BC70478187FF1F8087FF1F014E004080B483B000AF174B1B78DBB203F003037B717B79012B03D8134B1B88FB8011E0114B1B78DBB2FB80104B1B7832
:4029C000DBB29BB21B029AB2FB881343FB807B79032B01D10B4B1B780B4B1B78DBB2002B02D00A4B00221A70B7F9063018460C37BD4680BC704700BF144E0040104E004073
:402A0000114E0040124E00408187FF1F8087FF1F80B582B000AF0346FB71384B00221A70FB79012B65D1364B38221A70354B05221A70354B07221A70344B00221A70344BC9
:402A400000221A70334B16221A70334B00221A70324B00221A70324B00221A70314B01221A70314B14221A70304B04221A70304B18221A702F4B00221A702F4B11221A70C2
:402A80002E4B12221A702E4B00221A702D4B02221A702D4B22221A702C4B28221A702C4BEB221A70442000F01DF92A4B58221A70294B00221A70294B05221A70284B022236
:402AC0001A70284B00221A70274B00221A70002000F016FA254BA7221A600121022000F023FA01210C2000F005FB21491D2000F04FFC00BF0837BD4680BD00BF8187FF1FA8
:402B0000004E0040024E0040034E0040044E0040054E0040064E0040084E0040094E00400A4E0040144E0040845800408558004086580040875800408A5800408B5800400B
:402B40008C5800408E5800408F580040905800409158004094580040955800409A5800409B5800409C5800409D5800403C8BFF1F612D000090B587B000AF044608461146DF
:402B80001A462346FB710346BB800B467B801346BB7197F82830002B00F08B8097F82830012B00F28680FB79013B092B4AD801A252F823F0DD2B0000452C0000452C000083
:402BC000DD2B0000452C0000452C0000F72B0000112C0000452C00002B2C0000BB790F2B04D9374B1B78DBB2FB752EE0354B1B78DBB2FB7529E0BB790F2B04D9324B1B78E5
:402C0000DBB2FB7521E0314B1B78DBB2FB751CE0BB790F2B04D92E4B1B78DBB2FB7514E02C4B1B78DBB2FB750FE0BB790F2B04D9294B1B78DBB2FB7507E0284B1B78DBB287
:402C4000FB7502E00023FB7500BFBA8897F917305B0113443B617B883A6902FB03F3FB60FB68DB0BBB82BB790D2B12D8BA8ABB79C3F10E0342FA03F3BB8297F82830013BA9
:402C8000BA790132D1B2164A9B0013440A469A7007E097F82830013B114A9B0013440F229A7097F82830013B0D49BA8A21F8232002E0002000F004FB00BF1C37BD4690BD81
:402CC000180100491C010049190100491D0100491A0100491E0100491B0100491F0100498487FF1F80B584B000AF0346FB7101F037FC0346FB73174A164B1B78DBB243F0C2
:402D00000303DBB21370144A134B1B78DBB243F00303DBB21370114AFB791370032000F0FDFA0C4A0B4B1B78DBB223F00303DBB21370094A084B1B78DBB223F00303DBB29B
:402D40001370FB7B184601F00FFC00BF1037BD4680BD00BFF8460040F94600409258004080B400AF00BFBD4680BC704780B500AF064B00221A70064B00221A70002000F04E
:402D800057F8022000F034F800BF80BD2C5800402D58004080B400AF094A094B1B78DBB243F00803DBB21370064A064B1B78DBB243F00803DBB2137000BFBD4680BC704745
:402DC000A8430040B843004080B500AF074B1B78002B04D1FFF7CAFF044B01221A70FFF7D9FF642000F044F800BF80BD8887FF1F80B483B000AF0346FB710C4A0B4B1B7838
:402E0000DBB223F00203DBB213700849074B1B78DAB2FB7903F00203DBB21343DBB20B7000BF0C37BD4680BC704700BF2C58004080B582B000AF0346FB710C4A0B4B1B783F
:402E4000DBB223F00C03DBB213700849074B1B78DAB2FB7903F00C03DBB21343DBB20B7000F016F800BF0837BD4680BD2C58004080B483B000AF0346FB71044AFB79137060
:402E800000BF0C37BD4680BC704700BF835B004080B483B000AF0B4B1B78DBB203F00C039B08DBB20633FB71074AFB7903F1924303F59C731B78DBB2137000BF0C37BD469D
:402EC00080BC70472C5800400B46004080B582B000AF0023FB7106E0FB791846FEF7F0FFFB790133FB71FB79012BF5D9034BFF221A7000BF0837BD4680BD00BFA986FF1F84
:402F000080B582B000AF0346FB71FFF7DFFFFB791846FEF7B5FF034AFB79137000BF0837BD4680BDA986FF1F80B584B000AF03460A46FB8013467B7100F0CEF80346FB73CA
:402F400000F0A4F80346BB81FA88BB899A4200F08880464B1B78DBB203F00103FB72FB7B002B20D1BB89002B02D0FB88002B1AD1BB89002B0BD13E4AFB8813803D4A3D4B2D
:402F80001B78DBB223F04003DBB2137069E0394A384B1B78DBB243F04003DBB21370344AFB8813805DE0FB7A002B33D0324B00221A70324B01221A70314B00221A70314A2C
:402FC000304B1B78DBB203F07F03DBB21370294B1B78DBB203F00803002B02D0FB88002B18D1294ABB891380234B07221A7000BF214B1B78DBB203F00103002BF8D11B4A85
:403000001A4B1B78DBB223F00103DBB213701A4B00221A70154B1B78DBB203F00103002B13D0194AFB881380134A7B79002B01D0032300E00123137000BF0F4B1B78DBB2A2
:4030400003F00103002BF8D10BE0094AFB8813800649064B1B78DAB2FB7A1343DBB20B70FFE700BF1037BD4680BD00BFA2430040804000408240004001400040104000405C
:4030800014400040084000400240004080B400AF034B1B889BB21846BD4680BC704700BF8040004080B483B000AF0346FB710949084B1B78DBB25AB297F9073023F00703BE
:4030C0005BB213435BB2DBB20B7000BF0C37BD4680BC70478240004080B400AF044B1B78DBB203F00703DBB21846BD4680BC70478240004080B584B000AF03460A46FB8000
:4031000013467B7100F0CEF80346FB7300F0A4F80346BB81FA88BB899A4200F08880464B1B78DBB203F00203FB72FB7B002B20D1BB89002B02D0FB88002B1AD1BB89002B41
:403140000BD13E4AFB8813803D4A3D4B1B78DBB223F04003DBB2137069E0394A384B1B78DBB243F04003DBB21370344AFB8813805DE0FB7A002B33D0324B00221A70324B31
:4031800002221A70314B00221A70314A304B1B78DBB203F07F03DBB21370294B1B78DBB203F00803002B02D0FB88002B18D1294ABB891380234B07221A7000BF214B1B784F
:4031C000DBB203F00103002BF8D11B4A1A4B1B78DBB223F00203DBB213701A4B00221A70154B1B78DBB203F00203002B13D0194AFB881380134A7B79002B01D0032300E0E2
:403200000123137000BF0F4B1B78DBB203F00103002BF8D10BE0094AFB8813800649064B1B78DAB2FB7A1343DBB20B70FFE700BF1037BD4680BD00BFA14300400441004049
:4032400006410040014000401440004010400040084000400240004080B400AF034B1B889BB21846BD4680BC704700BF0441004080B483B000AF0346FB710949084B1B785C
:40328000DBB25AB297F9073023F007035BB213435BB2DBB20B7000BF0C37BD4680BC70470641004080B400AF044B1B78DBB203F00703DBB21846BD4680BC704706410040E3
:4032C00080B483B000AF0346FB7101BE00BF0C37BD4680BC704700BF80B582B000AF786008E00C4B1B68184601F032F97B68A3F500437B607B68B3F5004FF2D8064B1B6852
:403300007A6802FB03F3184601F022F900BF0837BD4680BDB886FF1FB086FF1F80B582B000AF0346FB80FB88054A127802FB03F3184601F00DF900BF0837BD4680BD00BFE5
:40334000B486FF1F80B584B000AF03463960FB710E4B1B68FB60FB790F2B02D90020FFF7AFFFFB7903F00F039B00FA6813441B68BB60FB7903F00F039B00FA6813443A6831
:403380001A60BB6818461037BD4680BD08ED00E080B584B000AF03463960FB710F4B1B68FB60FB791F2B02D90020FFF789FFFB7903F01F0310339B00FA6813441B68BB6023
:4033C000FB7903F01F0310339B00FA6813443A681A60BB6818461037BD4680BD08ED00E080B582B000AF03460A46FB711346BB71BB79072B02D90020FFF762FFFB791F2B9E
:4034000002D90020FFF75CFFFB7903F01F0303F1604303F56443BA795201D2B21A7000BF0837BD4680BD00BF80B500AF064B1B68002B04D100F00AF8034B01221A6000F06B
:403440003BF800BF80BD00BFA087FF1F80B582B000AF00237B6007E0124A7B68002142F823107B6801337B607B68042BF4D90E490F20FFF767FF012000F056F80B4B1B6866
:403480000B4AA2FB03239B09184600F031F800F075F8084B4FF400421A6000BF0837BD4680BD00BF8C87FF1F95350000AC86FF1FD34D621000E100E080B500AF00F00AF8B9
:4034C000034A034B1B6843F00103136000BF80BD10E000E080B400AF044A044B1B6843F00203136000BFBD4680BC704710E000E080B483B000AF7860044A7B6823F07F4311
:40350000136000BF0C37BD4680BC704714E000E080B400AF034B1B6823F07F431846BD4680BC704718E000E080B483B000AF78607B68012B06D1094A084B1B6843F0040360
:40354000136005E0054A054B1B6823F00403136000BF0C37BD4680BC704700BF10E000E080B400AF044B1B681B0C03F001031846BD4680BC704700BF10E000E080B400AF24
:40358000034B00221A6000BFBD4680BC704700BF18E000E080B582B000AFFFF7E1FF0346012B13D100237B600DE00A4A7B6852F82330002B04D0074A7B6852F82330984722
:4035C0007B6801337B607B68042BEED900BF0837BD4680BD8C87FF1F80B582B000AF4FF4886000F05DF84FF4886000F075F800F0B7FF0346FB710A4A094B1B78DBB243F02D
:403600001003DBB21370FB79184600F0ADFF00F073F8012000F028F800BF0837BD4680BD9965004080B400AF054A054B1B78DBB263F07F03DBB2137000BFBD4680BC7047B5
:403640007965004080B500AF064B1B78002B04D1FFF7C2FF034B01221A70FFF7E3FF00BF80BD00BFA587FF1F80B483B000AF0346FB71044AFB79137000BF0C37BD4680BC84
:40368000704700BF8965004080B400AF034B1B78DBB21846BD4680BC704700BF6965004080B483B000AF0346FB80044AFB88138000BF0C37BD4680BC704700BF506A004005
:4036C00080B400AF034B1B889BB21846BD4680BC704700BF906A004080B483B000AF0346FB80044AFB88138000BF0C37BD4680BC704700BF106A004080B500AF01E0FFF7F2
:40370000DFFFFFF7C1FF034603F00803002BF6D100BF80BD80B500AF00F060F8044800F02DF8072000F03CF800F04CF800BF80BD3537000090B583B000AFFFF7A5FF0E4B32
:403740001C690D48FDF73CFB0346184601F03AFC03461946204601F089FC0346184601F04BFE03467B607B68DBB21846FFF780FB00BF0C37BD4690BDDC87FF1F80B485B072
:4037800000AF7860054B1B68FB60FB6844337A681A6000BF1437BD4680BC704708ED00E080B483B000AF0346FB71054AFB795B01DBB2137000BF0C37BD4680BC704700BF98
:4037C00001E400E080B400AF034B02221A6000BFBD4680BC704700BF00E100E080B400AF034B02221A6000BFBD4680BC704700BF80E100E080B485B000AF0346FB710B4B59
:403800001B78DBB223F00203FB730849FB795B00DBB203F00203DAB2FB7B1343DBB20B7000BF1437BD4680BC704700BF4051004080B485B000AF0346FB710B4B1B78DBB20A
:4038400023F00403FB730849FB799B00DBB203F00403DAB2FB7B1343DBB20B7000BF1437BD4680BC704700BF4051004080B485B000AF0346FB710A4B1B78DBB223F0010390
:40388000FB730749FB7903F00103DAB2FB7B1343DBB20B7000BF1437BD4680BC704700BF4051004080B485B000AF0346FB710B4B1B78DBB223F00803FB730849FB79DB0080
:4038C000DBB203F00803DAB2FB7B1343DBB20B7000BF1437BD4680BC704700BF4051004080B485B000AF0346FB710B4B1B78DBB223F01003FB730849FB791B01DBB203F015
:403900001003DAB2FB7B1343DBB20B7000BF1437BD4680BC704700BF4051004080B400AF054B1B78DBB203F08003DB09DBB21846BD4680BC704700BF3151004080B400AF92
:40394000054B1B78DBB203F040039B09DBB21846BD4680BC704700BF3151004080B400AF094A094B1B78DBB243F01003DBB21370064A064B1B78DBB243F01003DBB2137084
:4039800000BFBD4680BC7047A2430040B243004080B500AF214A214B1B78DBB203F00103DBB213701E4A1E4B1B78DBB223F00303DBB213701B4A1B4B1B78DBB223F03003CB
:4039C000DBB21370174A174B1B78DBB243F03003DBB21370134A134B1B78DBB223F00F03DBB213700F4A0F4B1B78DBB243F00F03DBB213700C4A0C4B1B78DBB243F0010322
:403A0000DBB21370592000F057F8592000F066F8082000F041F800BF80BD00BF004F0040024F00400B4F0040014F004080B400AF0D4A0D4B1B78DBB243F00103DBB21370A8
:403A40000A4A0A4B1B78DBB243F00103DBB21370074A074B1B78DBB243F00103DBB2137000BFBD4680BC7047A3430040B3430040004F004080B500AF064B1B78002B04D1C4
:403A8000FFF786FF034B01221A70FFF7CFFF00BF80BD00BFA687FF1F80B483B000AF0346FB71044AFB79137000BF0C37BD4680BC704700BF034F004080B485B000AF03460C
:403AC000FB71FB79FB81044AFB89138000BF1437BD4680BC704700BF044F004080B483B000AF0346FB71044BFA7992B21A8000BF0C37BD4680BC7047064F004080B400AFD8
:403B0000054B1B78DBB203F020035B09DBB21846BD4680BC704700BF3151004080B400AF054B1B78DBB203F010031B09DBB21846BD4680BC704700BF3151004080B582B0F3
:403B400000AF1B4B1B78DBB223F00703FB71184AFB791370164B1B78DBB223F00303FB71134AFB79137000F0A7F86FF0010000F087F8002000F05EF8002000F03FF800F0D9
:403B80004DF8802000F08AF800F0EAFC0346BB71084A084B1B78DBB243F01003DBB21370BB79184600F0E0FC00BF0837BD4680BD746500409765004080B400AF054A054BD5
:403BC0001B78DBB263F07F03DBB2137000BFBD4680BC70477465004080B500AF064B1B78002B04D1FFF7AAFF034B01221A70FFF7E3FF00BF80BD00BFA787FF1F80B483B04A
:403C000000AF0346FB71044AFB79137000BF0C37BD4680BC704700BF8765004080B400AF034B1B78DBB21846BD4680BC704700BF6765004080B483B000AF7860034A7B686A
:403C4000136000BF0C37BD4680BC70470465004080B400AF034B1B78034B1B681846BD4680BC7047046500404465004080B400AF024B1B681846BD4680BC704744650040C5
:403C800080B483B000AF7860034A7B68136000BF0C37BD4680BC70472465004080B483B000AF7860034A7B68136000BF0C37BD4680BC70473465004080B500AF01E0FFF795
:403CC000D5FFFFF7ABFF034603F04003002BF6D100BF80BD80B400AF094A094B1B78DBB243F00803DBB21370064A064B1B78DBB243F00803DBB2137000BFBD4680BC704727
:403D0000A2430040B243004080B500AF064B1B78002B04D100F00AF8034B01221A7000F029F800BF80BD00BFA887FF1F80B500AF102000F05DF907210020FFF751FB0A4924
:403D40000020FFF725FB094A084B1B78DBB243F00603DBB21370082000F086F8044B00221A8000BF80BD00BFE53F0000095900404C8BFF1F80B582B000AF00F0F1FB0346A9
:403D8000FB712E4A2D4B1B78DBB243F00203DBB213702B4A2A4B1B78DBB243F00203DBB21370284A274B1B78DBB243F00103DBB21370254A244B1B78DBB243F00103DBB2E0
:403DC0001370224B1B78BB71BB7943F00203BB71BB7943F00103BB711C4ABB7913701C4B04221A701B4A1B4B1B78DBB223F04003DBB21370174A174B1B78DBB243F0030344
:403E0000DBB21370144B08221A70144B02221A70134A134B1B78DBB243F00803DBB213700A20FFF77BFA0F4B01221A60FB79184600F09AFB00BF0837BD4680BDAB430040DA
:403E4000BB430040A1430040B14300400B5900400E5900400D59004008590040164600402F5B004080E200E080B584B000AF0346FB71FB790A2B07D00C2B02D0082B06D013
:403E800008E0C423FB730BE08423FB7308E04423FB7305E0C423FB730020FFF711FA00BF054AFB7B1370FB79184600F05BF800BF1037BD4680BD00BF0A59004080B400AF06
:403EC000054A054B1B78DBB243F00103DBB2137000BFBD4680BC70470859004080B400AF054A054B1B78DBB223F00103DBB2137000BFBD4680BC70470859004080B584B0DE
:403F000000AF0346FB710C4B1B78DBB203F00103FB73FB7B012B02D0FB79002BF3D0FB7B012B04D10120FFF7F9F9034B1B78FB7B18461037BD4680BD0959004080B400AF2A
:403F4000064B1B78DAB2064B1B881BB2DBB2D31ADBB25BB21846BD4680BC7047A25B00404A8BFF1F80B584B000AF0346FB71FB790A2B08D00C2B02D0082B08D00BE04FF4E8
:403F80008053FB600DE04FF48063FB6009E04FF48073FB6005E00023FB600020FFF790F900BF0C4B00221A80FB6842F2107202FB03F303F6C413084A82FB0312D212DB1781
:403FC000D31A064A1360064B00221A8000BF1037BD4680BD488BFF1FAD8BDB68448BFF1F4A8BFF1F80B400AF00BFBD4680BC704780B483B000AF0346FB710949084B1B78D7
:40400000DBB25AB297F9073023F007035BB213435BB2DBB20B7000BF0C37BD4680BC70470241004080B400AF054B1B78DBB203F002035B08DBB21846BD4680BC704700BFC2
:404040006151004080B485B000AF0346FB710B4B1B78DBB223F00203FB730849FB795B00DBB203F00203DAB2FB7B1343DBB20B7000BF1437BD4680BC704700BF0051004030
:4040800080B485B000AF0346FB710A4B1B78DBB223F00103FB730749FB7903F00103DAB2FB7B1343DBB20B7000BF1437BD4680BC704700BF3051004080B500AF084B0F2236
:4040C0001A7000F0ABF800F063F800F06FF8054B01221A70044B00221A7000BF80BD00BF85640040866500408664004080B582B000AF00F035FA0346FB71134A124B1B7899
:40410000DBB243F02003DBB21370104A0F4B1B78DBB243F01003DBB213700D4A0C4B1B78DBB243F01003DBB21370FB79184600F01BFA00F0A3F800F01FF800F023F800BF0B
:404140000837BD4680BD00BF95640040966500409664004080B500AF064B1B78002B04D1FFF7AAFF034B01221A70FFF7BFFF00BF80BD00BFA987FF1F80B400AF00BFBD468F
:4041800080BC704780B400AF00BFBD4680BC704780B483B000AF044B1B78FB71FB7918460C37BD4680BC70476665004080B483B000AF044B1B78FB71FB7918460C37BD467E
:4041C00080BC70476664004080B483B000AF0346FB7100BF074B1B78DBB203F00403002BF8D0054AFB79137000BF0C37BD4680BC704700BF666500404664004080B400AF04
:40420000054A054B1B78DBB243F00103DBB2137000BFBD4680BC70477565004080B582B000AF01E0124B1B78124B1B78DBB203F02003002BF6D100F093F90346FB710E4AB4
:404240000D4B1B78DBB243F00103DBB213700A4A094B1B78DBB223F00103DBB21370FB79184600F081F900BF0837BD4680BD00BF56640040666400409664004080B400AF36
:40428000094A094B1B78DBB243F00203DBB21370064A064B1B78DBB243F00203DBB2137000BFBD4680BC7047A2430040B243004080B500AF00F048F8044800F015F8072053
:4042C00000F024F800F034F800BF80BDD142000080B500AF034B01221A60012000F048F900BF80BDAC87FF1F80B485B000AF7860054B1B68FB60FB6848337A681A6000BF02
:404300001437BD4680BC704708ED00E080B483B000AF0346FB71054AFB795B01DBB2137000BF0C37BD4680BC704700BF02E400E080B400AF034B04221A6000BFBD4680BC21
:40434000704700BF00E100E080B400AF034B04221A6000BFBD4680BC704700BF80E100E080B500AF214A214B1B78DBB203F00103DBB213701E4A1E4B1B78DBB223F0030394
:40438000DBB213701B4A1B4B1B78DBB243F00103DBB21370184A184B1B78DBB223F03003DBB21370144A144B1B78DBB243F03003DBB21370104A104B1B78DBB223F00F0333
:4043C000DBB213700C4A0C4B1B78DBB243F00F03DBB213704FF6FF7000F090F8002000F053F8002000F040F800BF80BD0C4F00400E4F00400D4F0040174F004080B400AF63
:404400000D4A0D4B1B78DBB243F00203DBB213700A4A0A4B1B78DBB243F00203DBB21370074A074B1B78DBB243F00103DBB2137000BFBD4680BC7047A3430040B343004039
:404440000C4F004080B500AF064B1B78002B04D1FFF786FF034B01221A70FFF7CFFF00BF80BD00BFB087FF1F80B483B000AF0346FB71044AFB79137000BF0C37BD4680BC3E
:40448000704700BF0F4F004080B582B000AF0346FB80104B1B78DBB203F00203002B02D00020FEF70DFF0B4A0A4B1B78DBB243F00203DBB21370084AFB881380054A054B64
:4044C0001B78DBB223F00203DBB2137000BF0837BD4680BDA3430040124F004080B400AF044B1B88044B1B889BB21846BD4680BC704700BF124F0040144F004080B483B09D
:4045000000AF0346FB80044AFB88138000BF0C37BD4680BC704700BF104F004080B400AF094A094B1B78DBB243F00403DBB21370064A064B1B78DBB243F00403DBB213704F
:4045400000BFBD4680BC7047A2430040B24300400230800803D000BF01380046FCD17047EFF3108072B6704780F31088704700BF80B485B000AF0346FB710B4B1B78DBB2C8
:4045800023F00803FB730849FB79DB00DBB203F00803DAB2FB7B1343DBB20B7000BF1437BD4680BC704700BF6051004081F0004102E000BF83F0004330B54FEA41044FEA8F
:4045C000430594EA050F08BF90EA020F1FBF54EA000C55EA020C7FEA645C7FEA655C00F0E2804FEA5454D4EB5555B8BF6D420CDD2C4480EA020281EA030382EA000083EAF4
:40460000010180EA020281EA0303362D88BF30BD11F0004F4FEA01314FF4801C4CEA113102D0404261EB410113F0004F4FEA03334CEA133302D0524263EB430394EA050F45
:4046400000F0A780A4F10104D5F1200E0DDB02FA0EFC22FA05F2801841F1000103FA0EF2801843FA05F359410EE0A5F120050EF1200E012A03FA0EFC28BF4CF0020C43FAEF
:4046800005F3C01851EBE37101F0004507D54FF0000EDCF1000C7EEB00006EEB0101B1F5801F1BD3B1F5001F0CD349085FEA30004FEA3C0C04F101044FEA445212F5800F1D
:4046C00080F09A80BCF1004F08BF5FEA500C50F1000041EB045141EA050130BD5FEA4C0C404141EB010111F4801FA4F10104E9D191F0000F04BF01460020B1FA81F308BF00
:404700002033A3F10B03B3F120020CDA0C3208DD02F1140CC2F10C0201FA0CF021FA02F10CE002F11402D8BFC2F1200C01FA02F120FA0CFCDCBF41EA0C019040E41AA2BF5F
:4047400001EB0451294330BD6FEA04041F3C1CDA0C340EDC04F11404C4F1200220FA04F001FA02F340EA030021FA04F345EA030130BDC4F10C04C4F1200220FA02F001FADF
:4047800004F340EA0300294630BD21FA04F0294630BD94F0000F83F4801306BF81F480110134013D4EE77FEA645C18BF7FEA655C29D094EA050F08BF90EA020F05D054EAE4
:4047C000000C04BF1946104630BD91EA030F1EBF0021002030BD5FEA545C05D14000494128BF41F0004130BD14F580043CBF01F5801130BD01F0004545F0FE4141F4700185
:404800004FF0000030BD7FEA645C1ABF194610467FEA655C1CBF0B46024650EA013406BF52EA033591EA030F41F4002130BD00BF90F0000F04BF0021704730B54FF480648A
:4048400004F132044FF000054FF0000150E700BF90F0000F04BF0021704730B54FF4806404F1320410F0004548BF40424FF000013EE700BF42004FEAE2014FEA31014FEA3E
:4048800002701FBF12F07F4393F07F4F81F06051704792F0000F14BF93F07F4F704730B54FF4607401F0004521F0004120E700BF50EA010208BF704730B54FF000050AE036
:4048C00050EA010208BF704730B511F0004502D5404261EB41014FF4806404F132045FEA915C3FF4DCAE4FF003025FEADC0C18BF03325FEADC0C18BF033202EBDC02C2F16A
:40490000200300FA03FC20FA02F001FA03FE40EA0E0021FA02F11444C1E600BF70B54FF0FF0C4CF4E06C1CEA11541DBF1CEA135594EA0C0F95EA0C0F00F0DEF82C4481EACB
:40494000030621EA4C5123EA4C5350EA013518BF52EA033541F4801143F4801338D0A0FB02CE4FF00005E1FB02E506F00042E0FB03E54FF00006E1FB03569CF0000F18BF2E
:404980004EF0010EA4F1FF04B6F5007F64F5407404D25FEA4E0E6D4146EB060642EAC62141EA55514FEAC52040EA5E504FEACE2EB4F1FD0C88BFBCF5E06F1ED8BEF1004F7D
:4049C00008BF5FEA500E50F1000041EB045170BD06F0004646EA010140EA020081EA0301B4EB5C04C2BFD4EB0C0541EA045170BD41F480114FF0000E013C00F3AB8014F1E1
:404A0000360FDEBF002001F0004170BDC4F10004203C35DA0C341BDC04F11404C4F1200500FA05F320FA04F001FA05F240EA020001F0004221F0004110EBD37021FA04F6DD
:404A400042EB06015EEA430E08BF20EAD37070BDC4F10C04C4F1200500FA04F320FA05F001FA04F240EA020001F0004110EBD37041F100015EEA430E08BF20EAD37070BDEF
:404A8000C4F1200500FA05F24EEA020E20FA04F301FA05F243EA020321FA04F001F0004121FA04F220EA020000EBD3705EEA430E08BF20EAD37070BD94F0000F0FD101F0E4
:404AC0000046400041EB010111F4801F08BF013CF7D041EA060195F0000F18BF704703F00046520043EB030313F4801F08BF013DF7D043EA0603704794EA0C0F0CEA13552A
:404B000018BF95EA0C0F0CD050EA410618BF52EA4306D1D181EA030101F000414FF0000070BD50EA410606BF1046194652EA430619D094EA0C0F02D150EA013613D195EAF3
:404B40000C0F05D152EA03361CBF104619460AD181EA030101F0004141F0FE4141F470014FF0000070BD41F0FE4141F4780170BD70B54FF0FF0C4CF4E06C1CEA11541DBFB4
:404B80001CEA135594EA0C0F95EA0C0F00F0A7F8A4EB050481EA030E52EA03354FEA013100F088804FEA03334FF0805545EA131343EA12634FEA022245EA111545EA10650A
:404BC0004FEA00260EF000419D4208BF964244F1FD0404F5407402D25B084FEA3202B61A65EB03055B084FEA32024FF480104FF4002CB6EB020E75EB030E22BFB61A75464A
:404C000040EA0C005B084FEA3202B6EB020E75EB030E22BFB61A754640EA5C005B084FEA3202B6EB020E75EB030E22BFB61A754640EA9C005B084FEA3202B6EB020E75EB55
:404C4000030E22BFB61A754640EADC0055EA060E18D04FEA051545EA16754FEA06164FEAC30343EA52734FEAC2025FEA1C1CC0D111F4801F0BD141EA00014FF000004FF0EA
:404C8000004CB6E711F4801F04BF01430020B4F1FD0C88BFBCF5E06F3FF6AFAEB5EB030C04BFB6EB020C5FEA500C50F1000041EB045170BD0EF0004E4EEA113114EB5C04DF
:404CC000C2BFD4EB0C0541EA045170BD41F480114FF0000E013C90E645EA060E8DE60CEA135594EA0C0F08BF95EA0C0F3FF43BAF94EA0C0F0AD150EA01347FF434AF95EA0D
:404D00000C0F7FF425AF104619462CE795EA0C0F06D152EA03353FF4FDAE1046194622E750EA410618BF52EA43067FF4C5AE50EA41047FF40DAF52EA43057FF4EBAE12E7CE
:404D40004FF0FF3C06E000BF4FF0010C02E000BF4FF0010C4DF804CD4FEA410C7FEA6C5C4FEA430C18BF7FEA6C5C1BD001B050EA410C0CBF52EA430C91EA030F02BF90EA3D
:404D8000020F0020704710F1000F91EA030F58BF994208BF90422CBFD8176FEAE37040F0010070474FEA410C7FEA6C5C02D150EA013C07D14FEA430C7FEA6C5CD6D152EA00
:404DC000033CD3D05DF8040B704700BF8446104662468C461946634600E000BF01B5FFF7B7FF002848BF10F1000F01BD4DF808EDFFF7F4FF0CBF012000205DF808FB00BF11
:404E00004DF808EDFFF7EAFF34BF012000205DF808FB00BF4DF808EDFFF7E0FF94BF012000205DF808FB00BF4DF808EDFFF7CEFF94BF012000205DF808FB00BF4DF808ED72
:404E4000FFF7C4FF34BF012000205DF808FB00BF80F0004002E000BF81F0004142001FBF5FEA410392EA030F7FEA226C7FEA236C6AD04FEA1262D2EB1363C1BFD2184140FC
:404E800048404140B8BF5B42192B88BF704710F0004F40F4000020F07F4018BF404211F0004F41F4000121F07F4118BF494292EA030F3FD0A2F1010241FA03FC10EB0C00BB
:404EC000C3F1200301FA03F100F0004302D5494260EB4000B0F5000F13D3B0F1807F06D340084FEA310102F10102FE2A51D2B1F1004F40EBC25008BF20F0010040EA030092
:404F00007047490040EB000010F4000FA2F10102EDD1B0FA80FCACF1080CB2EB0C0200FA0CF0AABF00EBC25052421843BCBFD0401843704792F0000F81F4000106BF80F435
:404F400000000132013BB5E74FEA41037FEA226C18BF7FEA236C21D092EA030F04D092F0000F08BF0846704790EA010F1CBF0020704712F07F4F04D1400028BF40F00040BB
:404F8000704712F100723CBF00F50000704700F0004343F0FE4040F4000070477FEA226216BF08467FEA23630146420206BF5FEA412390EA010F40F4800070474FF000035C
:404FC00004E000BF10F0004348BF40425FEA000C08BF704743F0964301464FF000001CE050EA010208BF70474FF000030AE000BF50EA010208BF704711F0004302D54042E3
:4050000061EB41015FEA010C02BF84460146002043F0B64308BFA3F18053A3F50003BCFA8CF2083AA3EBC25310DB01FA02FC634400FA02FCC2F12002BCF1004F20FA02F22A
:4050400043EB020008BF20F00100704702F1200201FA02FCC2F1200250EA4C0021FA02F243EB020008BF20EADC7070474FF0FF0C1CEAD0521EBF1CEAD15392EA0C0F93EA68
:405080000C0F6FD01A4480EA010C400218BF5FEA41211ED04FF0006343EA501043EA5111A0FB01310CF00040B1F5000F3EBF490041EAD3715B0040EA010062F17F02FD2A5D
:4050C0001DD8B3F1004F40EBC25008BF20F00100704790F0000F0CF0004C08BF49024CEA502040EA51207F3AC2BFD2F1FF0340EAC250704740F400004FF00003013A5DDCF6
:4051000012F1190FDCBF00F000407047C2F10002410021FA02F1C2F1200200FA02FC5FEA310040F1000053EA4C0308BF20EADC70704792F0000F00F0004C02BF400010F414
:40514000000F013AF9D040EA0C0093F0000F01F0004C02BF490011F4000F013BF9D041EA0C018FE70CEAD15392EA0C0F18BF93EA0C0F0AD030F0004C18BF31F0004CD8D1F3
:4051800080EA010000F00040704790F0000F17BF90F0004F084691F0000F91F0004F14D092EA0C0F01D142020FD193EA0C0F03D14B0218BF084608D180EA010000F00040F8
:4051C00040F0FE4040F40000704740F0FE4040F4400070474FF0FF0C1CEAD0521EBF1CEAD15392EA0C0F93EA0C0F69D0A2EB030280EA010C49024FEA402037D04FF08053D6
:4052000043EA111143EA10130CF000408B4238BF5B0042F17D024FF4000C8B4224BF5B1A40EA0C00B3EB510F24BFA3EB510340EA5C00B3EB910F24BFA3EB910340EA9C00C6
:40524000B3EBD10F24BFA3EBD10340EADC001B0118BF5FEA1C1CE0D1FD2A3FF650AF8B4240EBC25008BF20F0010070470CF0004C4CEA50207F32C2BFD2F1FF0340EAC2502B
:40528000704740F400004FF00003013A37E792F0000F00F0004C02BF400010F4000F013AF9D040EA0C0093F0000F01F0004C02BF490011F4000F013BF9D041EA0C0195E7A7
:4052C0000CEAD15392EA0C0F08D142027FF47DAF93EA0C0F7FF470AF084676E793EA0C0F04D14B023FF44CAF08466EE730F0004C18BF31F0004CCAD130F000427FF45CAFB6
:4053000031F000437FF43CAF5FE700BF4FF0FF3C06E000BF4FF0010C02E000BF4FF0010C4DF804CD4FEA40024FEA41037FEA226C18BF7FEA236C11D001B052EA530C18BF76
:4053400090EA010F58BFB2EB030088BFC81738BF6FEAE17018BF40F0010070477FEA226C02D15FEA402C05D17FEA236CE4D15FEA412CE1D05DF8040B704700BF844608460B
:405380006146FFE70FB5FFF7C9FF002848BF10F1000F0FBD4DF808EDFFF7F4FF0CBF012000205DF808FB00BF4DF808EDFFF7EAFF34BF012000205DF808FB00BF4DF808EDEF
:4053C000FFF7E0FF94BF012000205DF808FB00BF4DF808EDFFF7D2FF94BF012000205DF808FB00BF4DF808EDFFF7C8FF34BF012000205DF808FB00BF4FEA4002B2F1FE4FD4
:405400000FD34FF09E03B3EB12620DD94FEA002343F0004310F0004F23FA02F018BF404270474FF00000704712F1610F01D1420205D110F0004008BF6FF0004070474FF081
:405440000000704742000ED2B2F1FE4F0BD34FF09E03B3EB126209D44FEA002343F0004323FA02F070474FF00000704712F1610F01D1420202D14FF0FF3070474FF0000068
:40548000704700BF014B1868704700BF1C87FF1F0E4B70B51E460E4C0025E41AA410A54204D056F8253098470135F8E702F0A6F9084B094C1E46E41AA4100025A54204D0DF
:4054C00056F8253098470135F8E770BD0878000008780000087800001078000010B5431E0A44914204D011F8014B03F8014FF8E710BD03460244934202D003F8011BFAE74B
:4055000070472DE9F04788B0149F002B1E461299B8BF03F1004327F02007B6BF1E4600232D23462F1446109DDDF84CA00B7003D0452F03D1013501E0032300E0022307AA44
:40554000049206AA03928DE828042246334600F003FD472F804602D1119BDB0728D5462F08EB050911D198F80030302B0AD10022002320463146FFF739FC18B9C5F101051C
:40558000CAF80050DAF8003099440022002320463146FFF72BFC08B9302202E0CDF81C9006E0079B994503D9591C07911A70F8E74046079B159AC8EB0303136008B0BDE83D
:4055C000F087034673B50029B8BF494203F8022BB4BF2D222B22092942701ADD0DF1070216460A2591FBF5F405FB1411092C01F1300102F8011D2146F4DC3031541E02F8E6
:40560000011CB4421A460AD214F8012B03F8012BF7E71A463024214402F8024B5970101A02B070BD2DE9F04F91B00C46DDF8688016461F46054601F027FA03681846099384
:4056400000F0F4FB00230E93D8F800300A90073323F0070303F1080294F81890D4F800B0C8F80020D3E90023C4E91223D4F84CA0D4F848802AF000430B934FF0FF32A74B9E
:4056800040460B9901F054FFA0B94FF0FF32A34B40460B99FFF7BEFB60B90022002340465146FFF7ADFB10B12D2384F843309C4B9C4A0AE0424653464046514601F038FFB6
:4056C000002800F09281984B984AB9F1470F8CBF90469846032323612BF0040323604FF0000A3DE0B9F1670F00F08A81B9F1470F00F0868123600193636800210DF13302BE
:40570000059002920093424653460691CDF81090CDF80CE02846FFF7F4FE09F0DF03472B804600F08481B9F1650F0D9900F28D8101394A4604F150000D91FFF742FF0E9A31
:4057400082468318012A236100F37C812268D10700F178819DF8333013B12D2384F84330009733460FAA2146284600F09FF9013002D14FF0FF3096E123685A0501D4236986
:4057800065E0B9F1650F40F2D580D4E9120100220023FFF72BFB78B30123654A31462846B8470130E5D00E9B0D9A9A420BDB2368D80708D423689B0740F111814FF0000877
:4057C00004F1190906E10A9B099A31462846B8470130CED04FF0000804F11A090E9B013B9845E7DA01234A4631462846B8470130BFD008F10108F1E70D9B002B29DC0123A0
:405800004B4A31462846B8470130B2D00D9B23B90E9B13B92368D907CCD50A9B099A31462846B8470130A4D04FF0000904F11A0A0D9B5B42994509DA01235246314628465E
:40584000B847013095D009F10109F1E70E9B4246A7E00E9AA36D9A42A8BF1A46002A914606DC4FF0000A29EAE97904F11A0B11E01346314642462846B8470130F1D178E7E1
:4058800001235A4631462846B84701303FF471AF0AF1010AA36DC9EB03029245F0DB08EB03090D9A0E9B9A420FDB2368DA070CD40E9B0D9A9844C9EB08089B1A9845A8BF01
:4058C0009846B8F1000F08DC0FE00A9B099A31462846B8470130EBD14BE743464A4631462846B84701303FF444AF4FF0000928EAE87804F11A0A09E0012352463146284643
:40590000B84701303FF435AF09F101090D9A0E9B9B1AC8EB03039945EEDB4BE7FFFFEF7F387600003C7600004076000044760000487600000E9A012A01DCDB0738D50123C8
:40594000424631462846B84701303FF412AF0A9B099A31462846B84701303FF40AAFD4E9120100220023FFF741FA20B14FF0000804F11A090EE00E9B08F10102013B19E00F
:4059800001234A4631462846B84701303FF4F1AE08F101080E9B013B9845F1DB534604F1500231462846B84701307FF403AFE0E64246012331462846B8470130EED1D8E69E
:4059C00001234A4631462846B84701303FF4D1AE08F10108E3680F9A9B1A9845F0DBE0680F9B9842B8BF18465DE062680EA8531C0DF1340E4BF480637FF474AE062201E00C
:405A000012B90122626075E6002106910DF133018DE80C00236005904246CDF81090CDF80CE0029153462846FFF76BFD80460D9BD81C02DB626893421DDDA9F102095FFA6C
:405A400089F970E60133236184E6B9F1660F14D10029636807DD216113B92268D2071DD501330B4419E013B92268D00701D5023313E0012311E04FF067090D9B0E9A93421D
:405A800005DB22682361D10708D5013305E0002BD4BFC3F102030123134423610D9B4FF0000AA36556E611B0BDE8F08F2DE9F04791461F460A698B6806469342B8BF1346BA
:405AC000C9F8003091F843200C46DDF8208012B10133C9F800302368990642BFD9F800300233C9F80030256815F0060510D104F1190A07E00123524639463046C047013062
:405B00001AD00135E368D9F800209B1A9D42F1DB94F843302268003318BF012392060FD5E118302081F843005A1C94F845102244023382F8431003E04FF0FF30BDE8F08745
:405B400004F1430239463046C0470130F4D02268D9F80050E36802F00602042A08BF5D1B2269A3680CBF25EAE57500259342C4BF9B1AED184FF000091A344D4509D0012377
:405B8000224639463046C0470130D5D009F10109F3E70020BDE8F0872DE9F04317460A7E85B06E2A984606460C460C9B01F1430E00F0AE8011D8632A22D009D8002A00F0AF
:405BC000BB80582A40F0CA8081F84520834955E0642A1ED0692A1CD0C0E0732A00F0B08009D86F2A2ED0702A40F0B8800A6842F020020A603EE0752A24D0782A3AD0ADE0A3
:405C00001A6801F14205111D1960136884F84230A8E021681A6811F0800F02D0111D196008E011F0400F02F10401196002D0B2F9003000E01368002B3CDA2D225B4284F8A3
:405C4000432037E021681A6811F0800F02D0111D196007E011F0400F02F10401196001D0138800E01368227E5C496F2A14BF0A2208221BE078225A4984F8452022681868FD
:405C800012F0800F00F104051D6003D1550601D5038800E00368D00744BF42F0200222601BB9226822F0200222601022002084F8430001E049490A226568002DA56008DBAB
:405CC000206820F0040020602BB9002D7DD175460CE0002B79D07546B3FBF2F002FB1033CB5C05F8013D03460028F5D1082A0BD12368DA0708D5236962689A42DEBF302371
:405D000005F8013C05F1FF35C5EB0E0323612EE008681A6810F0800F496903D0101D1860136808E010F0400F02F104001860136801D0198000E0196000232361754616E04A
:405D40001A68111D1960156800216268284600F0A7FE08B1401B6060636804E004F1420584F8422001232361002384F84330CDF800803B4603AA21463046FFF797FE01302C
:405D800002D14FF0FF3026E023692A4639463046C0470130F5D023689B0710D5002504F1190907E001234A4639463046C0470130E7D00135E368039A9B1A9D42F2DBE0681A
:405DC000039B9842B8BF184605E00B7804F1420584F842308AE705B0BDE8F0834A7600005B7600000EB400B54FF402719CB0ADF814106FF00041049107914FF6FF711DAB69
:405E000002900690084853F8042BADF81610006802A9019301F03AFA029B00221A701CB05DF804EB03B070471C87FF1F034613F8012B002AFBD1181A013870472DE9F74F61
:405E400003690C6980469C427FDC013C01F114074FEA840E00F1140606EB0E0357F82450019356F824300135B3FBF5F507EB0E09C5B34FF0000A3846B446D34650F8043B77
:405E80009AB205FB02A21B0C4FEA124A05FB03A392B2C2EB0B0BBCF800204FEA134A5A441FFA83FBDCF800308145CBEB134303EB224392B242EA03424FEA234B4CF8042BF2
:405EC000DCD256F80E306BB9019B043B9E421A4602D3C8F8104005E01268043B002AF8D1013CF3E7404600F0F6FF00282BDB304601354FF0000E57F8042B036891B2C1EB32
:405F00000E0E120C99B27144C2EB134303EB214389B24FEA234EB94541EA034340F8043BE9D256F8242006EB840362B9043B9E421A4602D3C8F8104005E01268043B002AFB
:405F4000F8D1013CF3E7284600E0002003B0BDE8F08F0000000000002DE9F04F456A95B08246219CCDE9022345B9102000F090FDCAF82400456085600560C560DAF8243088
:405F8000196859B15A68012393404A608B60504600F0C9FDDAF8243000221A60039BA04A002BBDBF01232360039B0023BCBF23F000430393DDF80C80A8BF236028F0004356
:405FC0001B0D1B0593421DD142F20F73209A1360029B43B9934A944BC8F31300002814BF1846104600E09048229B002B00F04685C37813B100F1080300E0C31C229A13609D
:4060000000F03CBDDDE902450022002320462946FEF7ECFE074658B1209A01231360229B002B00F01E8581481860013800F026BD12AB019313AB009322462B46504600F001
:40604000C5FFC8F30A56049056B1C5F3130343F07F51204641F44011A6F2FF3611971DE0139B129E1E4406F23243202B0ADD029A06F21240C3F1400322FA00F008FA03F337
:40608000184304E0C3F12000029B03FA00F0FEF7CFFB0123A1F1F871013E11930022644BFEF788FA58A3D3E90023FEF737FC58A3D3E90023FEF780FA044630460D46FEF7E7
:4060C000C7FB55A3D3E90023FEF728FC02460B4620462946FEF770FA04460D4601F03EFA00228346002320462946FEF789FE58B15846FEF7ADFB02460B4620462946FEF755
:4061000075FE08B90BF1FF3BBBF1160F0DD8DDE90223484901EBCB01D1E90001FEF78EFE30B10BF1FF3B002300E00123109300E01090129B9E1B731E079343BFC3F100081F
:40614000002307934FF00008BBF1000F06DB079BCDF82CB05B440793002705E00023CBEB0808CBF100070B931E9B092B28D8052BC4BF043B1E931E9BC8BF0025A3F102031F
:40618000D8BF0125032B20D8DFE803F0060E0204012302E0012308E000230A931F9B002B1DDD9946059321E000230A931F9B0BEB030909F10103012B0593B8BF012315E031
:4061C000012500231E930A9501E001230A934FF0FF390022CDF8149012231F9206E04FF001094B46CDF81490CDF87C90DAF8244000226260042101F114029A421CD86268A1
:40620000490001326260F6E761436F63A787D23FB3C8608B288AC63FFB799F501344D33F0000F07F6C76000075760000497600000000F83FE87600006168504600F03EFC8C
:40624000DAF8243020601B680693059B0E2B00F25B81002D00F05881DDE90234BBF1000FCDE90E3430DD9F4A0BF00F034FEA2B1502EBC303E80618CBCDE908340CD5DDE977
:406280000E01994B05F00F05D3E90823FEF770FC0324CDE9020100E00224934E6DB1E90708D5DDE90801D6E90023FEF737FBCDE9080101346D100836F0E7DDE90823DDE9D3
:4062C0000201FEF755FC20E0CBF1000505B3DDE90E01844B05F00F0203EBC203D3E90023FEF71CFBCDE902017F4E2D110023022455B1EA0705D5D6E90023FEF70FFB0134A0
:4063000001236D100836F3E71BB1CDE9020100E00224109BE3B1DDE902560022734B28463146FEF76DFD98B1059B8BB1B9F1000F40F3E6800BF1FF330893314600226C4B08
:406340002846FEF7EBFA0134CDE902014E4602E0059ECDF820B02046FEF77AFADDE90223FEF7DCFA634B0022FEF726F9A1F1507304460C931D46D6B9DDE9020100225E4B0C
:40638000FEF718F922460C9BCDE90201FEF756FD002840F03F820C99224601F10043DDE90201FEF72DFD002840F02B82A8E00A9A4C4B711E002A49D003EBC103D3E9002359
:4063C00000204E49FEF7D4FB22462B46FEF7F2F8CDE90C01069CDDE9020101F0BFF80546FEF736FA02460B46DDE90201FEF7E2F8DDE90C23303504F8015BCDE90201FEF793
:40640000FFFC002840F01D83DDE9022300203749FEF7D0F8DDE90C23FEF7F2FC002840F0D180069BE31AB3426ADADDE90C0100222F4BFEF773FA0022CDE90C01DDE902014A
:406440002B4BFEF76BFACDE90201C4E703EBC1012246D1E900012B46FEF760FA069BCDE90C011D469C19DDE9020101F077F80646FEF7EEF902460B46DDE90201FEF79AF89F
:40648000303605F8016BAC42CDE902014FF0000222D11A4BDDE90C01FEF78EF802460B46DDE90201FEF7CAFC002840F08B80DDE90C2300201149FEF77DF802460B46DDE9C7
:4064C0000201FEF79DFCD8B114F8013C621E302B40F0B7821446F7E7054BFEF71FFACDE90201C0E7E8760000C07700000000F03F0000244000001C40000014400000E03F08
:40650000DDE90E34CDE90234139B002B7CDBBBF10E0F79DCAB4B03EBCB03D3E900671F9B002B14DA059B002B11DC40F06C810022A54B30463946FEF7F1F9DDE90223FEF7D6
:4065400073FC059D2E46002840F05F8165E1069CDDE9028932463B4640464946FEF708FB00F0FCFF0546FEF773F932463B46FEF7D5F90B46024649464046FEF71BF805F120
:40658000300E069B04F801EBC3EB040E059B73452DD102460B46FEF70FF88046894602460B4630463946FEF72BFC78B942464B4630463946FEF71AFC002800F04482EB0710
:4065C00004D440E2DDF820B000E01C4614F8012C631E392A07D1069A9A42F6D1069930220BF1010B0A701A7801321A702BE20022764BFEF793F90022002380468946FEF780
:40660000F5FB0028A6D01EE20A9A002A2BD01E9A012A0ADC119A12B103F2334302E0129BC3F136033D46444613E0059B5D1EAF42BFBF0B9BEA1B9B180B93059BB6BF2F46D5
:406640007D1B0025002BA7BF4446059BC3EB08040023079A01211A4450469844079200F001FB064602E03D4644460A9E5CB1079B002B08DDA342A8BF2346079AC3EB0808F7
:40668000E41AD31A0793002F1DDD0A9BABB18DB131462A46504600F07FFB049A01460646504600F0E8FA04990890504600F03BFA089B04937A1B06D000E03A460499504645
:4066C00000F06AFB04900121504600F0CBFA0B9B05465BB31A460146504600F05DFB1E9B0546012B18DC029B83B9039BC3F3130373B9039B23F000473F0D3F054FB1079B03
:4067000008F1010801330793012702E0002700E0029F0B9B73B100E000272B6905EB8303186900F052FAC0F1200004E01E9B012BD9DD0B9F0120079B184410F01F0008D02F
:40674000C0F12003042B02DDC0F11C0002E006D018461C30079B8044034404440793B8F1000F05DD42460499504600F063FB0490079B002B05DD29461A46504600F05AFBE9
:406780000546109B23B32946049800F0A4FB00281EDA00230A220499504600F0DBF90A9B0BF1FF3B0490002B00F05F81314600230A22504600F0CEF9B9F1000F06463FDC70
:4067C0003BE000BFE87600000000144000002440059B002B2BDC1E9B022B28DDDDF81490B9F1000F11D129464B460522504600F0B1F901460546049800F06DFB00280CDCEB
:4068000003E0354600E000252E461F9B069C6FEA030B09E03546DDF820B0069B069A5C1C312313700BF1010B05960026F7E00A9BDDF8149023B9069CB2E01E9B022BCFDCC6
:40684000002C05DD31462246504600F0F3FA06469FB17168504600F031F90446326906F10C01023292000C30FEF738FE01222146504600F0DFFA059000E00596029B069F42
:4068800003F00103079329460498FFF7D7FA3146044600F13008049800F01DFB059A02902946504600F033FBC36802463BB901460A90049800F00FFB0A9A034600E00123C4
:4068C000114650460A9300F02EF90A9B53B91E9A42B9079A32B9B8F1390F2AD0029B002B1CDC1DE0029A002A04DB1BD11E9ACAB9079ABAB9002B13DD01220499504600F01E
:4069000099FA2946049000F0E6FA002803DC07D118F0010F04D0B8F1390F0AD004F131087C1C0CE0002B07F101040BDDB8F1390F03D139233B70013756E008F1010887F8DE
:4069400000806CE0069B2746E31A4B4504F8018C3BD000230A220499504600F0FBF8059B04909E424FF00A024FF000033146504604D100F0EFF80646059084E700F0EAF83F
:40698000002306460A220599504600F0E3F8059079E700230A220499504600F0DBF8049029460498FFF74AFA069B00F1300804F8018BE31A4B45ECDB069B0596B9F1010F8E
:4069C000ACBF4B4401331F46002601220499504600F030FA2946049000F07DFA002803DC15D118F0010F12D03C4614F8013C621E392B09D1069B934204D10BF1010B3123ED
:406A0000069A02E01446F0E70133137007E03C4614F8013C621E302B01D11446F8E72946504600F080F8059B6BB12EB19E4203D03146504600F077F80599504600F073F89E
:406A400001E0DDF820B00499504600F06CF80023209A23700BF101031360229B1BB11C6001E008480AE0069808E0B9F1000F3FF7E2AE1E9B022B7FF7DEAEB1E615B0BDE818
:406A8000F08F00BF48760000004870472087FF1F024B0146186800F041BB00BF1C87FF1F10B5C9B202449042034605D01C7801308C42F8D1184610BD002010BD70B5456AD8
:406AC00004460E463DB91020FFF7E2FF6062456085600560C560656AEB6843B1636ADB6853F8260078B1026843F8262017E021220421204600F0B8FA636AE860DB68002B90
:406B0000ECD1002070BD012101FA06F56A1D9200204600F0A9FA0028F3D04660856000230361C36070BD70B5446A06460D463CB91020FFF7ADFF7062446084600460C460B9
:406B40003DB1736A6A68DB6853F82210296043F8225070BD2DE9F04106460C460D691F4601F1140E0023DEF80000013381B202FB0171000C0F0C02FB007089B201EB0041B6
:406B80009D424FEA10474EF8041BECDCD7B1A3689D4212DB616830460131FFF78FFF8046226904F10C01023292000C30FEF796FC21463046FFF7B7FF444604EB8503013549
:406BC0005F6125612046BDE8F081030C1B0413B90004102300E0002310F07F4F04BF0002083310F0704F04BF0001043310F0404F04BF80000233002803DB420003D5581C7C
:406C000070471846704720207047036813F007020BD0D90722D49A074BBF5B089B08036003604CBF01200220704799B209B91B0C102213F0FF0F04BF1B0A0832190704BF71
:406C40001B090432990704BF9B080232D90702D45B0805D00132036010467047002070472020704710B50C460121FFF727FF01224461026110BD2DE9F74F14460A6923691F
:406C800088469A42BEBF0B46A0461C46D8F81070D4F81090D8F80830D8F8041007EB09069E42C8BF0131FFF709FF00F114052B4605EB860C0022634502D243F8042BFAE7EE
:406CC00004F1140208F1140102EB890301EB87070093009B0192934257D9B2F800B0BBF1000F23D08946AE464FF0000859F8044BBEF800A0A3B20BFB03A34FEA144ADEF84C
:406D0000004043444FEA14480BFB0A84F24604EB13449BB243EA04434F454FEA14484AF8043B01D9D646E1E7CEF80480019B0432B3F802A0BAF1000F21D02C4689462B68D4
:406D40004FF00008B9F800E0B4F802B09BB20AFB0EBEA346F04443EA08434BF8043B59F8043BB4F804E01B0C0AFB03E34F4503EB18434FEA134801D95C46E3E763600435C3
:406D8000A7E75CF8043D13B9013E002EF9DC066103B0BDE8F08F00002DE9F843154612F0030206460F4607D0214C013A002354F82220FFF7CFFE0746AD1036D0746A3CB93A
:406DC0001020FFF765FE7062446084600460C460D6F82480D8F808404CB940F271213046FFF740FF04460023C8F8080003604FF00008EB070AD5394622463046FFF73BFFED
:406E0000814639463046FFF78EFE4F466D100CD0206808B10446ECE7224621463046FFF72AFF2060C0F80080F4E73846BDE8F883B07700002DE9F0470C46074691462669BA
:406E40004FEA621A56444968A368751CAB4202DA01315B00FAE73846FFF730FE002380461A4600F11401534503DA41F823200133F9E72AEAEA73206901EB830319F01F09AC
:406E800004F1140101EB800E14D0C9F1200C002208689A4600FA09F0024343F8042B51F8042B8E4522FA0CF2F2D8CAF8042042B1B51C06E0043B51F8042B8E4543F8042FB9
:406EC000F9D8013D3846C8F810502146FFF72BFE4046BDE8F08703690A6910B59B1A11D192001430143183180A4453F8044D52F8041D8C4202D007D3012010BD9842F4D36E
:406F0000002010BD184610BD4FF0FF3010BD2DE9F8430C460746114620461546FFF7DBFF061E08D131463846FFF7C8FD012303614661BDE8F883BCBF23462C46384661688D
:406F4000BABF1D4601260026FFF7B8FD2B69C660266905F1140904F1140101EB860709EB830800F114054FF0000C51F8042B59F8044B93B29C44A3B2240CC3EB0C03C4EB5C
:406F8000124202EB23429BB24FEA224CC84543EA02428E4645F8042BE7D8BE450ED25EF8041B8AB26244131403EB114392B242EA03424FEA234C45F8042BEEE755F8043DEB
:406FC0000BB9013EFAE70661BDE8F8832DE9F3411C4601219046089E099DFFF76FFDC4F31302C4F30A5407460CB142F480120192B8F1000F19D002A840F8088DFFF705FE7D
:40700000009B48B1019AC0F1200102FA01F10B43C2407B61019200E07B61019B002B14BF02210121BB61396107E001A8FFF7EDFD019B01217B613961203034B1A4F233446B
:4070400004443460C0F1350009E0A0F2324007EB810330601869FFF7B8FDC0EB41102860384602B0BDE8F08138B502FB01F4214600F054F8054618B122460021FEF739FA1E
:40708000284638BD38B50546002944D051F8043C0C1F002BB8BFE41800F017FA1E4A1368114613B96360146030E0A3420DD92268A018834201BF18685B6812182260636014
:4070C0000C6023E0A24203D813465A68002AF9D118681918A1420BD12168014458188242196013D110685268014419605A600DE002D90C232B6009E021686018824201BFEA
:40710000106852680918216062605C602846BDE8384000F0DBB938BDB887FF1F70B5CD1C25F0030508350C2D38BF0C25002D064601DBA94202D90C23336046E000F0C5F922
:40714000234B1C681A462146A1B10B685B1B0ED40B2B03D90B60CC18CD501EE08C420BBF63684B681360636018BF0C4615E00C464968E9E7174C23681BB9304600F07AF9E5
:4071800020602946304600F075F9431C18D0C41C24F00304A0420DD12560304600F096F904F10B00231D20F00700C31A0ED05A42E25070BD211A304600F05CF90130EBD1A0
:4071C0000C233360304600F081F9002070BD00BFB887FF1FB487FF1F2DE9F0478E6882469E420C46914698463ED88A8912F4906F3AD02568096902236F1A656905EB45054C
:4072000095FBF3F57B1C43449D4238BF1D4653050FD52946FFF782FF064698B13A462169FEF75CF9A38923F4906343F08003A38113E02A4600F04BF9064670B92169504638
