:400000000080002011000000A5000000A500000080B500AF024A034B1B68136000F070F8BC760040FA46004010B5054C237833B9044B13B10448AFF300800123237010BD65
:400040006884FF1F00000000D03B0000084B10B51BB108480849AFF300800848036803B910BD074B002BFBD0BDE81040184700BF00000000D03B00006C84FF1F0881FF1F65
:400080000000000080B584B000AF00F06BFF00F079FD00F027FB01F0AFFA01F013FB62B6FEE700BF80B400AFFEE700BF80B584B000AF7860104B1A687B6813441A460F4BB9
:4000C000D31AB3F5B07F09DC0B4B1B68FB600A4B1A687B681344084A136007E001F0DEFD02460C2313604FF0FF33FB60FB6818461037BD4680BD00BFB083FF1FB084FF1F3A
:4001000080B586B000AF224B7B61224B3B61204B7B6135E03B691B68FB603B695B68BB603B699B683B6000237B600CE0FB681A68BB681A60BB680433BB60FB680433FB60DB
:400140007B6804337B607A683B689A42EED13B69DB683B6000237B6008E0BB6800221A60BB680433BB607B6804337B607A683B689A42F2D13B6910333B617B69013B7B6136
:400180007B69002BC6D101F08FFDFFF77BFFFEE701000000603D000080B582B000AF174B174A1A60174A174B1B6843F40073136000237B600FE07B68032B04D8124A7B685A
:4001C00052F8233000E0114B11497A6841F822307B6801337B607B682F2BECD90D4B1B78DAB20D4B1A700D4B094A1A6000F090F90B4B00221A600837BD4680BD0CED00E02A
:400200000004FA0514ED00E000000000A50000000080FF1FBC7600400481FF1F08ED00E00081FF1F80B582B000AF78603960786800213A6801F069FD0837BD4680BD00BF4F
:4002400080B584B000AFF860B9607A60F868B9687A6801F04FFD1037BD4680BD80B483B000AF0346FB71FEE780B487B000AF7860396000233B6100237B6127E07B699B0075
:400280007A6813441B68BB60BB68FB73BB6823F0FF03BB6014E03B695B003A6813441B781A46BB68134419463B695B003A6813445B780B703B6901333B61FB7B013BFB73F1
:4002C000FB7B002BE7D17B6901337B617B69122BD4D91C37BD465DF8047B704780B582B000AF3C4B00221A803B4B50221A703B483B490422FFF7A4FF3A4B02221A704FF0EF
:40030000402308221A70384B03221A70374B384A1278D2B21A70374B08221A80364B41F251221A800023FB7019237B6014E0FB785B00DAB2314B1B78DBB203F00103DBB2BE
:400340001343DBB203F00303FB704FF4F07001F083F87B68013B7B607B68002B02D0FB78032BE4D17B68002B02D10320FFF776FF234B4FF480721A80214B07221A70214BC0
:4003800000221A70204B48221A701D4B00221A701E4B02221A701E4B04221A701D4A1D4B1B78DBB243F00103DBB213701A4A1A4B1B78DBB243F00103DBB21370174A174BC5
:4003C0001B78DBB263F07F03DBB213700837BD4680BD00BF804000408240004000410040540100480043004000420040A1460040080100492242004020420040254200402F
:40040000044000400640004008400040014000400B400040A2430040A1430040A043004080B483B000AF114B1B78FB71104AFB7903F00703DBB213700E4AFB791B09DBB2E9
:4004400013700D4B01221A700C4B40221A700C4B01221A700B4B10221A700B4B44221A700C37BD465DF8047B704700BFCF0100496E5800406F5800400D5100401C51004054
:400480008B5A0040005B00407658004080B483B000AF0346FB71FB79012B0ED8FB79094A52F82330FA79074951F822201178FA790548825C0A43D2B21A700C37BD465DF84E
:4004C000047B7047D83B0000E03B000080B483B000AF0346FB71FB79012B10D8FB790A4A52F82330FA79084951F822201178FA790648825CD243D2B20A40D2B21A700C3735
:40050000BD465DF8047B7047D83B0000E03B000080B582B000AF72B63D4A3D4B1B78DBB243F00403DBB213700023FB7113E0FA7913465B0013445B00364A13443B603B68D8
:400540001A683B689B889BB210461946FFF76AFEFB790133FB71FB79072BE8D94FF090402D49FFF781FE2D4B0A221A702C4A2C4B1B78DBB243F00203DBB21370294A294BF4
:400580001B78DBB243F00203DBB21370264A264B1B78DBB243F04003DBB21370234A234B1B78DBB243F01003DBB21370204821490822FFF745FE204820490822FFF740FE97
:4005C0001F4820490822FFF73BFE1F481F490822FFF736FE1E4A1E4B1B78DBB243F00803DBB213701B4B01221A70FFF777FE194B81221A70184B01221A70FFF711FF1748EC
:4006000009490E22FFF71CFE0837BD4680BD00BFE8460040E43B00004C000048835800400350014013500140A0430040C24300400251004034010048125100403C010048D6
:400640002251004044010048625100404C010048224300400048004004000840B043004080B500AF282000F013FF032000F020F9052000F00DFF032000F01AF90F2000F046
:4006800007FF032000F014F9012000F001FF022000F00EF9052000F0FBFE062000F032F80E2000F02FF82C2000F02CF8082000F029F8012000F026F80C2000F023F8032035
:4006C00000F020F8052000F0E3FE80BD80B500AF0C2000F017F8024B01221A7080BD00BF8484FF1F80B500AF054B1B78002B04D1FFF7B6FF024B01221A70FFF7E7FF80BD0F
:400700008584FF1F80B584B000AF0346FB7100F013F8FB791B09FB73FB7B184600F0C8F8FB7903F00F03FB73FB7B184600F0C0F81037BD4680BD00BF80B582B000AF4FF43E
:40074000CA737B60554A554B1B78DBB223F07F03DBB21370524B1B78DBB223F00F03FB704F4AFB7843F00F03DBB213704D4B1B78DBB223F00F03FB704A4AFB7813704A4B48
:400780001B78DBB223F00F03FB70474AFB781370424A424B1B78DBB223F02003DBB213703E4A3E4B1B78DBB243F04003DBB21370002000F08FFE394A384B1B78DBB243F0D6
:4007C0001003DBB21370012000F084FE374B1B78FB70324A314B1B78DBB223F01003DBB21370002000F076FEFB7803F00803FB702A4A2A4B1B78DBB243F01003DBB21370B6
:40080000012000F067FE254A244B1B78DBB223F01003DBB21370FB78002B02D10A2000F059FE7B68013B7B60FB78002B02D07B68002BBDD1194A194B1B78DBB223F04003E9
:40084000DBB21370154A154B1B78DBB223F07F03DBB21370124A124B1B78DBB223F00F03DBB213700F4B1B78DBB223F00F03FB700C4AFB7843F00F03DBB213700A4B1B78C6
:40088000DBB223F00F03FB70074AFB7843F00F03DBB213700837BD4680BD00BF205100402251004023510040245100402151004080B582B000AF0346FB71144A134B1B782B
:4008C000DBB223F06003DBB21370104A0F4B1B78DBB223F00F03DBB213700C490B4B1B78DAB2FB791343DBB243F01003DBB20B70012000F0EFFD054A044B1B78DBB223F09F
:400900001003DBB213700837BD4680BD2051004080B582B002AF324B01221A70314B00221A70102000F088FC102000F06BFD1D20072100F009FE2C4B04221A702B4B0022B3
:400940001A702B4B00221A702A4A2A4B1B78DBB243F01803DBB21370274B00221A70274B00221A70264B00221A70264B0A221A70254B00221A70254B00221A70244B122209
:400980001A70244B13221A70234B00221A70234B14221A7001230093002048F6B65147F606020A2300F0B8F91D4A0D4B1B78DBB2013B1C499B000B449B7813701A4A084B51
:4009C0001B78DBB2013B174931F823301380044B1B78DBB2184600F0EDF8BD4680BD00BFB483FF1F8884FF1F96580040975800409E580040075B004093580040885B004089
:400A0000895B004080580040815800408358004088580040895800408D580040014E00400E4E00408C84FF1F0C4E004080B582B000AF00F019FD0346FB71444B1B78BB71CE
:400A4000434A434B1B78DBB243F00103DBB213703F4A3F4B1B78DBB243F01003DBB213703C4A3C4B1B78DBB243F00103DBB21370384A384B1B78DBB243F01003DBB213707C
:400A8000354A354B1B78DBB243F00203DBB21370324A324B1B78DBB243F00203DBB213702F4A2F4B1B78DBB243F00303DBB21370032000F00FFD284A274B1B78DBB223F0DC
:400AC0000203DBB21370254A244B1B78DBB223F00203DBB21370234A224B1B78DBB243F00603DBB21370204B7A221A701F4A1F4B1B78DBB243F00103DBB213701C4A1C4BDD
:400B00001B78DBB243F00103DBB21370194A194B1B78DBB243F00103DBB21370164A164B1B78DBB243F00103DBB21370134B4FF000521A60124B4FF000521A60FB79184655
:400B400000F096FC0837BD4680BD00BFB483FF1FAA430040BA430040F8460040F9460040915800407758004082580040A1430040B1430040A2430040B243004080E200E0B3
:400B800000E100E080B500AF084B1B78002B09D1074B1B78DBB2002B01D1FFF7B9FE034B01221A70FFF742FF80BD00BF8A84FF1F8B84FF1F80B582B000AF0346FB71384BB4
:400BC00000221A70FB79012B66D1364B38221A70354B05221A70354B07221A70344B00221A70344B00221A70334B16221A70334B00221A70324B00221A70324B00221A7097
:400C0000314B01221A70314B14221A70304B09221A70304B0A221A702F4B00221A702F4B11221A702E4B12221A702E4B01221A702D4B02221A702D4B22221A702C4B282207
:400C40001A702C4BEB221A70442000F01BF92A4B58221A70294B00221A70294B05221A70284B02221A70284B00221A70274B00221A70002000F010FA254B4FF47A721A6025
:400C80000020012100F01CFA0320012100F0FEFA1D20204900F030FC0837BD4680BD00BF8984FF1F004E0040024E0040034E0040044E0040054E0040064E0040084E004096
:400CC000094E00400A4E0040144E0040845800408558004086580040875800408A5800408B5800408C5800408E5800408F580040905800409158004094580040955800404D
:400D00009A5800409B5800409C5800409D580040A484FF1FFD0E000090B587B000AF0446084611461A462346FB710346BB800B467B801346BB7197F82830002B00F08A80E4
:400D400097F82830012B00F28580FB79013B092B4AD801A252F823F0810D0000E90D0000E90D0000810D0000E90D0000E90D00009B0D0000B50D0000E90D0000CF0D000033
:400D8000BB790F2B04D9364B1B78DBB2FB752EE0344B1B78DBB2FB7529E0BB790F2B04D9314B1B78DBB2FB7521E0304B1B78DBB2FB751CE0BB790F2B04D92D4B1B78DBB26F
:400DC000FB7514E02B4B1B78DBB2FB750FE0BB790F2B04D9284B1B78DBB2FB7507E0274B1B78DBB2FB7502E00023FB7500BFBA8897F917305B0113443B617B883A6902FB24
:400E000003F3FB60FB68DB0BBB82BB790D2B11D8BB8ABA79C2F10E021341BB8297F82830013BBA790132D1B2154A9B0013440A469A7007E097F82830013B114A9B001344AC
:400E40000F229A7097F82830013B0D49BA8A21F8232002E0002000F00FFB1C37BD4690BD180100491C010049190100491D0100491A0100491E0100491B0100491F01004953
:400E80008C84FF1F80B584B000AF0346FB7100F0EBFA0346FB73164A154B1B78DBB243F00303DBB21370134A124B1B78DBB243F00303DBB21370104AFB791370032000F0FB
:400EC00009FB0B4A0A4B1B78DBB223F00303DBB21370084A074B1B78DBB223F00303DBB21370FB7B184600F0C3FA1037BD4680BDF8460040F94600409258004080B400AFFC
:400F0000BD465DF8047B704780B500AF064B00221A70064B00221A70042000F057F8022000F034F880BD00BF245800402558004080B400AF094A094B1B78DBB243F002034D
:400F4000DBB21370064A064B1B78DBB243F00203DBB21370BD465DF8047B7047A8430040B843004080B500AF074B1B78002B04D1FFF7CAFF044B01221A70FFF7D9FF64208E
:400F800000F044F880BD00BF9084FF1F80B483B000AF0346FB710C4A0B4B1B78DBB223F00203DBB213700849074B1B78DAB2FB7903F00203DBB21343DBB20B700C37BD46B9
:400FC0005DF8047B704700BF2458004080B582B000AF0346FB710C4A0B4B1B78DBB223F00C03DBB213700849074B1B78DAB2FB7903F00C03DBB21343DBB20B7000F016F801
:401000000837BD4680BD00BF2458004080B483B000AF0346FB71044AFB7913700C37BD465DF8047B704700BF815B004080B483B000AF0B4B1B78DBB203F00C039B08DBB23C
:401040000633FB71074AFB7903F1924303F598731B78DBB213700C37BD465DF8047B7047245800400946004080B582B000AF0023FB7106E0FB791846FFF728FAFB7901335E
:40108000FB71FB79012BF5D9024BFF221A700837BD4680BDB583FF1F80B582B000AF0346FB71FFF7E1FFFB791846FFF7EFF9034AFB7913700837BD4680BD00BFB583FF1F60
:4010C00080B584B000AF03460A46FB8013467B7100F0CCF80346FB7300F0A2F80346BB81FA88BB899A4200F08780454B1B78DBB203F00103FB72FB7B002B20D1BB89002B57
:4011000002D0FB88002B1AD1BB89002B0BD13D4AFB8813803C4A3C4B1B78DBB223F04003DBB2137068E0384A374B1B78DBB243F04003DBB21370334AFB8813805CE0FB7A93
:40114000002B33D0314B00221A70314B01221A70304B00221A70304A2F4B1B78DBB203F07F03DBB21370284B1B78DBB203F00803002B02D0FB88002B18D1284ABB891380C2
:40118000224B07221A7000BF204B1B78DBB203F00103002BF8D11A4A194B1B78DBB223F00103DBB21370194B00221A70144B1B78DBB203F00103002B13D0184AFB881380BF
:4011C000124A7B79002B01D0032300E00123137000BF0E4B1B78DBB203F00103002BF8D10AE0084AFB8813800549054B1B78DAB2FB7A1343DBB20B701037BD4680BD00BFAB
:40120000A24300408040004082400040014000401040004014400040084000400240004080B400AF034B1B889BB21846BD465DF8047B70478040004080B483B000AF03466C
:40124000FB71094B084A1278D2B2D1B2FA7922F00702D2B20A43D2B2D2B21A700C37BD465DF8047B704700BF8240004080B400AF054B1B78DBB203F00703DBB21846BD460A
:401280005DF8047B704700BF8240004080B584B000AF03460A46FB8013467B7100F0CCF80346FB7300F0A2F80346BB81FA88BB899A4200F08780454B1B78DBB203F00103B7
:4012C000FB72FB7B002B20D1BB89002B02D0FB88002B1AD1BB89002B0BD13D4AFB8813803C4A3C4B1B78DBB223F04003DBB2137068E0384A374B1B78DBB243F04003DBB22B
:401300001370334AFB8813805CE0FB7A002B33D0314B00221A70314B01221A70304B00221A70304A2F4B1B78DBB203F07F03DBB21370284B1B78DBB203F00803002B02D019
:40134000FB88002B18D1284ABB891380224B07221A7000BF204B1B78DBB203F00103002BF8D11A4A194B1B78DBB223F00103DBB21370194B00221A70144B1B78DBB203F0A7
:401380000103002B13D0184AFB881380124A7B79002B01D0032300E00123137000BF0E4B1B78DBB203F00103002BF8D10AE0084AFB8813800549054B1B78DAB2FB7A1343AD
:4013C000DBB20B701037BD4680BD00BFA14300400041004002410040014000401440004010400040084000400240004080B400AF034B1B889BB21846BD465DF8047B7047BB
:401400000041004080B483B000AF0346FB71094B084A1278D2B2D1B2FA7922F00702D2B20A43D2B2D2B21A700C37BD465DF8047B704700BF0241004080B400AF054B1B785F
:40144000DBB203F00703DBB21846BD465DF8047B704700BF024100400230800803D000BF01380046FCD17047EFF3108072B6704780F31088704700BF80B483B000AF0346A7
:40148000FB7101BE0C37BD465DF8047B704700BF80B582B000AF786008E00C4B1B681846FFF7DAFF7B68A3F500437B607B68B3F5004FF2D8064B1B687A6802FB03F3184650
:4014C000FFF7CAFF0837BD4680BD00BFC483FF1FBC83FF1F80B582B000AF0346FB80FB88044A127802FB03F31846FFF7B5FF0837BD4680BDC083FF1F80B584B000AF0346BC
:401500003960FB710F4B1B68FB60FB791F2B02D90020FFF7B1FFFB7903F01F0310339B00FA6813441B68BB60FB7903F01F0310339B00FA6813443A681A60BB68184610374D
:40154000BD4680BD08ED00E080B582B000AF03460A46FB711346BB71BB79072B02D90020FFF78AFFFB791F2B02D90020FFF784FFFB7903F01F0303F1604303F56443BA79B2
:401580005201D2B21A700837BD4680BD80B582B000AF40F21E2000F05BF840F21E2000F073F8FFF761FF0346FB710A4A094B1B78DBB243F01003DBB21370FB791846FFF7C6
:4015C00057FF00F071F8012000F026F80837BD4680BD00BF9B64004080B400AF054A054B1B78DBB263F07F03DBB21370BD465DF8047B70477B64004080B500AF054B1B7895
:40160000002B04D1FFF7C2FF024B01221A70FFF7E3FF80BD9184FF1F80B483B000AF0346FB71044AFB7913700C37BD465DF8047B704700BF8B64004080B400AF034B1B781E
:40164000DBB21846BD465DF8047B70476B64004080B483B000AF0346FB80044AFB8813800C37BD465DF8047B704700BF5468004080B400AF034B1B889BB21846BD465DF841
:40168000047B70479468004080B483B000AF0346FB80044AFB8813800C37BD465DF8047B704700BF1468004080B500AF01E0FFF7DFFFFFF7C1FF034603F00803002BF6D1A6
:4016C00080BD00BF80B500AF00F06EF8044800F03BF8072000F04AF800F05AF880BD00BFE516000080B582B000AFFFF7A5FF00F085F80346DB43DBB2184600F061F80F4BA1
:401700001A680F4B1B689A4202DA0C4B1B6800E000230A4A1360094B1B680A4A52F823307B607B68DBB21846FFF770FC034B1B680133024A13600837BD4680BD9884FF1F9E
:40174000AC83FF1F0C81FF1F80B485B000AF7860054B1B68FB60FB6840337A681A601437BD465DF8047B704708ED00E080B483B000AF0346FB71054AFB795B01DBB2137079
:401780000C37BD465DF8047B704700BF00E400E080B400AF034B01221A60BD465DF8047B704700BF00E100E080B400AF034B01221A60BD465DF8047B704700BF80E100E09D
:4017C00080B485B000AF0346FB710B4B1B78DBB223F00803FB730849FB79DB00DBB203F00803DAB2FB7B1343DBB20B701437BD465DF8047B704700BF6051004080B400AF23
:40180000054B1B78DBB203F00803DB08DBB21846BD465DF8047B70476151004081F0004102E000BF83F0004330B54FEA41044FEA430594EA050F08BF90EA020F1FBF54EAFF
:40184000000C55EA020C7FEA645C7FEA655C00F0E2804FEA5454D4EB5555B8BF6D420CDD2C4480EA020281EA030382EA000083EA010180EA020281EA0303362D88BF30BD71
:4018800011F0004F4FEA01314FF4801C4CEA113102D0404261EB410113F0004F4FEA03334CEA133302D0524263EB430394EA050F00F0A780A4F10104D5F1200E0DDB02FAE2
:4018C0000EFC22FA05F2801841F1000103FA0EF2801843FA05F359410EE0A5F120050EF1200E012A03FA0EFC28BF4CF0020C43FA05F3C01851EBE37101F0004507D54FF075
:40190000000EDCF1000C7EEB00006EEB0101B1F5801F1BD3B1F5001F0CD349085FEA30004FEA3C0C04F101044FEA445212F5800F80F09A80BCF1004F08BF5FEA500C50F148
:40194000000041EB045141EA050130BD5FEA4C0C404141EB010111F4801FA4F10104E9D191F0000F04BF01460020B1FA81F308BF2033A3F10B03B3F120020CDA0C3208DD1C
:4019800002F1140CC2F10C0201FA0CF021FA02F10CE002F11402D8BFC2F1200C01FA02F120FA0CFCDCBF41EA0C019040E41AA2BF01EB0451294330BD6FEA04041F3C1CDA85
:4019C0000C340EDC04F11404C4F1200220FA04F001FA02F340EA030021FA04F345EA030130BDC4F10C04C4F1200220FA02F001FA04F340EA0300294630BD21FA04F02946DB
:401A000030BD94F0000F83F4801306BF81F480110134013D4EE77FEA645C18BF7FEA655C29D094EA050F08BF90EA020F05D054EA000C04BF1946104630BD91EA030F1EBFB4
:401A40000021002030BD5FEA545C05D14000494128BF41F0004130BD14F580043CBF01F5801130BD01F0004545F0FE4141F470014FF0000030BD7FEA645C1ABF194610462A
:401A80007FEA655C1CBF0B46024650EA013406BF52EA033591EA030F41F4002130BD00BF90F0000F04BF0021704730B54FF4806404F132044FF000054FF0000150E700BF76
:401AC00090F0000F04BF0021704730B54FF4806404F1320410F0004548BF40424FF000013EE700BF42004FEAE2014FEA31014FEA02701FBF12F07F4393F07F4F81F060510A
:401B0000704792F0000F14BF93F07F4F704730B54FF4607401F0004521F0004120E700BF50EA010208BF704730B54FF000050AE050EA010208BF704730B511F0004502D5AD
:401B4000404261EB41014FF4806404F132045FEA915C3FF4DCAE4FF003025FEADC0C18BF03325FEADC0C18BF033202EBDC02C2F1200300FA03FC20FA02F001FA03FE40EA86
:401B80000E0021FA02F11444C1E600BF4FF0FF3C06E000BF4FF0010C02E000BF4FF0010C4DF804CD4FEA410C7FEA6C5C4FEA430C18BF7FEA6C5C1BD001B050EA410C0CBFA8
:401BC00052EA430C91EA030F02BF90EA020F0020704710F1000F91EA030F58BF994208BF90422CBFD8176FEAE37040F0010070474FEA410C7FEA6C5C02D150EA013C07D13B
:401C00004FEA430C7FEA6C5CD6D152EA033CD3D05DF8040B704700BF8446104662468C461946634600E000BF01B5FFF7B7FF002848BF10F1000F01BD4DF808EDFFF7F4FF89
:401C40000CBF012000205DF808FB00BF4DF808EDFFF7EAFF34BF012000205DF808FB00BF4DF808EDFFF7E0FF94BF012000205DF808FB00BF4DF808EDFFF7CEFF94BF0120B2
:401C800000205DF808FB00BF4DF808EDFFF7C4FF34BF012000205DF808FB00BF014B1868704700BF2884FF1F0E4B70B51E460E4C0025E41AA410A54204D056F82530984753
:401CC0000135F8E702F03AF8084B094C1E46E41AA4100025A54204D056F8253098470135F8E770BD483D0000483D0000483D0000503D000010B5431E0A44914204D011F809
:401D0000014B03F8014FF8E710BD03460244934202D003F8011BFAE770472DE9F0471E4688B0149F002BB8BF06F10043129927F02007B6BF1E4600232D23462F1446109D52
:401D4000DDF84CA00B7003D0452F03D1013501E0032300E002238DE8280406AB039307AB04932246334600F0DFFB472F804602D1119BDB0726D5462F08EB050911D198F86E
:401D80000030302B0AD12046314600220023FFF753FF18B9C5F10105CAF80050DAF8003099442046314600220023FFF745FF08B1CDF81C90079B4B4504D25A1C07923022E6
:401DC0001A70F7E74046079B159AC8EB0303136008B0BDE8F087034673B50029B8BF494203F8022BB4BF2D222B22092942701ADD0DF1070426460A2291FBF2F502FB1511BF
:401E0000092D01F1300104F8011D2946F3DC3031651E04F8011CB5421A460AD215F8012B03F8012BF7E71A463024214402F8024B5970101A02B070BD2DE9F04F91B08B46EA
:401E400015461E461A9F044601F02AF9D0F800A0504600F0D5FA00230E933B680990073323F0070303F108029BF818803A60D3E90023CBE91223DBE9120100F099FA01286A
:401E8000DBE9120119D100220023FFF7DFFE10B12D238BF84330A04BA04FB8F1470F88BF1F460323CBF81030DBF8003023F00403CBF800304FF00009A1E000F079FADBF885
:401EC000003048B9964A974FB8F1470F88BF17460322CBF81020E9E7DBF80420DBE91201571CCDE90A0101D1062209E0B8F1670F02D0B8F1470F05D1002A40F0C7810122F0
:401F0000CBF80420DBF8042043F480638DE80C00CBF800300DF1330302930DAB03930EAB059300230693CDF81080DDE90A232046FFF7F3FE08F0DF03472B07460AD10D9B60
:401F4000D81C03DBDBF80420934237DDA8F102085FFA88F8B8F1650F0D9915D8013942460BF150000D91FFF736FF0E9A81468318012ACBF8103003DCDBF80020D10738D5BD
:401F80000133CBF8103034E0B8F1660F18D10029DBF8043009DDCBF810101BB9DBF80020D20721D501330B441CE01BB9DBF80020D00701D5023315E0012313E04FF067085E
:401FC0000D9B0E9A934207DBDBF80020CBF81030D10709D5013305E0002BD4BFC3F1020301231344CBF810300D9B4FF00009CBF858309DF8333013B12D238BF8433000964D
:40200000204659460FAA2B4600F05CF9013002D14FF0FF3052E1DBF800305A0505D4204629463A46DBF8103008E1B8F1650F40F2D080DBE9120100220023FFF7FDFD50B34D
:4020400020462946384A0123B0470130E0D00E9B0D9A9A4209DBDBF80030D80705D4DBF800309F0700F1108107E1204629465246099BB0470130CBD000270E9B013B9F426E
:40208000EDDA204629460BF11A020123B0470130BED00137F1E70D9B002B29DC20462946214A0123B0470130B2D00D9B2BB90E9B1BB9DBF80030D907D1D52046294652469D
:4020C000099BB0470130A3D04FF000080D9B20465B429845294608DA0BF11A020123B047013095D008F10108F0E73A460E9BA5E0DBF858200E9B9A42A8BF1A46002A914699
:4021000002DC4FF000081CE0204629463A464B46B0470130F5D17BE71A3C0000163C0000223C00001E3C0000263C0000204629460BF11A020123B04701303FF469AF08F109
:402140000108DBF85830B9F1000FB4BF1A46C9EB03029045EADB07EB03080D9A0E9B9A4210DBDBF80030DA070CD40E9A1744C8EB07030D9FD21B9342A8BF1346002B1F46C6
:4021800008DC0EE0204629465246099BB0470130EBD13DE7204629464246B04701303FF437AF4FF000080AE0204629460BF11A020123B04701303FF42BAF08F101080D9A76
:4021C0000E9B002FA3EB0203A8BFDB1B9845EBDB45E70E9A012A01DCDB0736D5204629463A460123B04701303FF412AF204629465246099BB04701303FF40AAFDBE912011A
:4022000000220023FFF718FDE8B90E9B204629467A1C013B1DE0204629460BF11A020123B04701303FF4F4AE01370E9B013B9F42F1DB204629464B460BF15002B0470130AC
:402240007FF40DAFE4E60027EFE7204629463A460123B0470130ECD1DAE6204629460BF119020123B04701303FF4D2AE0137DBF80C300F9A9B1A9F42EFDBDBF80C000F9B86
:402280009842B8BF184619E00027F0E743F480638DE80C00CBF800300DF1330302930DAB03930EAB059300230693CDF810802046DDE90A23FFF731FD074640E611B0BDE81B
:4022C000F08F00BF2DE9F84391461F468A680B6906469342B8BF1346C9F8003091F843200C46DDF8208012B10133C9F800302368990642BFD9F800300233C9F80030256851
:4023000015F006051CD094F843302268003318BF012392061FD5E118302081F843005A1C94F845102244023382F8431013E03046394604F119020123C047013007D0013539
:40234000E368D9F800209B1A9D42F0DBDBE74FF0FF30BDE8F8833046394604F14302C0470130F4D02268D9F80050E36802F00602042A08BF5D1B2269A3680CBF25EAE57520
:4023800000259342C4BF9B1AED184FF00009A9450ADA3046394604F11A020123C0470130D5D009F10109F2E70020BDE8F883000031F0004310B51BD00F4AA1F5801494423B
:4023C00010D901F1FF410C4A01F5E001914209D9B3F5801F08D3094A934207D1B0FA80F0400910BD042010BD032010BD002010BD0028E6D1022010BDFFFFDF7F0000F07F27
:40240000034613F8012B002AFBD1181A013870472DE9F74F03690C698046A3427EDB013C01F114074FEA840E00F1140606EB0E0357F82450019356F824300135B3FBF5F5DA
:4024400007EB0E09BDB34FF0000A3846B446D34650F8043B9AB21B0C02FB05A26B4303EB124392B2C2EB0B0BBCF800204FEA134A5A441FFA83FBDCF800304845CBEB134337
:4024800003EB224392B242EA03424FEA234B4CF8042BDDD956F80E306BB9019B043BB3421A4602D8C8F8104005E01268043B002AF8D1013CF3E7404601F00FF800282BDB26
:4024C000304601354FF0000E57F8042B036891B2C1EB0E0E120C99B27144C2EB134303EB214389B24FEA234E4F4541EA034340F8043BE9D956F8242006EB840362B9043BF5
:40250000B3421A4602D8C8F8104005E01268043B002AF8D1013CF3E7284600E0002003B0BDE8F08F000000002DE9F04F456A95B08246219CCDE9022345B9102000F0B4FDF7
:40254000CAF82400456085600560C560DAF82430196859B15A68012393404A608B60504600F0DFFDDAF8243000221A60039BA24A002BBDBF01232360039B0023BCBF23F017
:4025800000430393039FA8BF236027F000431B0D1B0593421DD142F20F73209A1360029B43B9964A964BC7F31300002814BF1846104600E09248229B002B00F06985C378DD
:4025C00013B100F1080300E0C31C229A136000F05FBDDDE902450022204629460023FFF72BFB804658B1209A01231360229B002B00F03C8583481860013800F049BD13ABF5
:40260000009312AB0193504622462B4600F0E0FFC7F30A5607905EB1C5F3130343F07F51204641F44011A6F2FF36CDF844801DE0139B129E1E446FF482639E42A1BF029AC4
:4026400006F2124322FA03F06F4BB7BF6F4B9B1B029A9B1BAABF9F4002FA03F03843FFF71FFA0123A1F1F871013E11930022684BFFF7D8F85AA3D3E9002301F06FF85AA37D
:40268000D3E90023FFF7D0F8044630460D46FFF717FA57A3D3E9002301F060F802460B4620462946FFF7C0F804460D4601F068FA29468346002220460023FFF7C7FA58B192
:4026C0005846FFF7FDF902460B4620462946FFF7B3FA08B90BF1FF3BBBF1160F0DD84D4B03EBCB03D3E90001DDE90223FFF7CCFA30B10BF1FF3B002300E00123109300E019
:402700001090129B9E1B731E0A9345BF5B420993002300234CBF0A930993BBF1000F07DB0A9BCDF834B05B440A9300230B9308E0099BCBEB03030993CBF100030B93002352
:402740000D931E9B092B29D8052BC4BF043B1E931E9BC8BF0025A3F10203D8BF0125032B21D8DFE803F0020E0410002300E001230C931F9B002B20DC0123069305931A460C
:4027800019E0002300E001230C931F9B5B4406930133012B0593B8BF012311E0012500231E930C9501E001230C934FF0FF3306930593002212231F9202E01F9B069305932E
:4027C000DAF8244000226260042101F114029A4222D86268490001326260F6E7AFF3008061436F63A787D23FB3C8608B288AC63FFB799F501344D33F0000F07F283C000044
:40280000313C0000273C00000EFCFFFFEEFBFFFF0000F83F403C00005046616800F04CFCDAF8243020601B680893059B0E2B00F24781002D00F04481DDE90223BBF1000FB0
:40284000CDE90E2331DDB14A0BF00F034FEA2B1602EBC303F006D3E900450CD5DDE90E01AB4B06F00F06D3E9082301F0A1F80327CDE9020100E00227DFF8948276B1F10717
:4028800008D5D8E900232046294600F067FF04460D460137761008F10808EFE7DDE9020122462B4601F084F81BE0CBF10004DCB1DDE90E01954B04F00F0203EBC203D3E972
:4028C000002300F04BFF924D241102274CB1E20704D5D5E90023013700F040FF64100835F4E7CDE9020100E00227109BDBB1DDE90245002220462946864BFFF7A7F990B106
:40290000059B83B1069B002B40F3D680294620460022814B00F022FF0BF1FF36CDE902010137069D01E05E46059D3846DDE90289FFF7C6F842464B4600F010FF774B00222F
:40294000FEF772FFCDE90201039BA3F150740394CDB9404649460022714BFEF763FF029A234680468946FFF78FF9002840F0408240464946029A04F10043FFF767F9002842
:4029800040F0308298E0614B0C996A1E03EBC203002947D0D3E900230020624901F008F8DDE90223FEF73EFFCDE90201089C4946404601F0E5F80746FFF782F802460B46A3
:4029C00040464946FEF72EFFDDE90223303704F8017B80468946FFF739F9002840F0378342464B4600204B49FEF71CFFDDE90223FFF72CF9002840F0D080089BE31AAB42EF
:402A00005ADADDE902010022434B00F0A7FE0022CDE90201404B4046494600F09FFE80468946C4E7D3E90001DDE9022300F096FE089BCDE902015C191D464946404601F0A6
:402A40009FF80746FFF73CF802460B4640464946FEF7E8FE303705F8017BA5428046894623D100222F4BDDE90201FEF7DDFE02460B4640464946FFF707F9002840F08D8031
:402A8000DDE9022300202749FEF7CCFE02460B4640464946FFF7DAF870B114F8013C621E302B40F0D4821446F7E700221A4B00F055FE80468946C0E7DDE90E23CDE902238B
:402AC000139B002BC0F28A80BBF10E0F00F386800E4B03EBCB03D3E900671F9B002B23DA059B002B20DC40F07C81304600220C4B394600F033FEDDE90223FFF7BBF8059DAC
:402B00002E46002840F06F8174E100BF403C0000083D00000000F03F0000244000001C40000014400000E03F089CDDE9028932463B464046494600F03BFF01F021F8054620
:402B4000FEF7BEFF32463B4600F008FE0B46024649464046FEF766FE05F1300E089B04F801EBC3EB040E059B9E452AD102460B46FEF75AFE32463B4680468946FFF784F8CA
:402B800070B94046494632463B46FFF755F8002800F05E82EB0703D45AE2B34600E01C4614F8012C631E392A07D1089A9342F6D13023137013460BF1010B1A7801321A70AA
:402BC00046E20022A34B00F0C9FD0022002380468946FFF731F80028A9D039E20C9A002A32D01E9A012A0ADC119A12B103F2334302E0129BC3F136030B9D099C18E0059B5D
:402C00005D1E0B9BAB42B7BF0B9B5D1BEA1A0D9BBEBF0B959B180D93059BB8BF0025002BB9BF099B059A099C059BBCBF9C1A0023099A50461A4409920A9A01211A440A9229
:402C400000F011FB064602E00B9D099C0C9E64B10A9B002B09DDA342A8BF2346099AE41AD21A09920A9AD31A0A930B9B002B20DD0C9BC3B1002D10DD31462A46504600F0ED
:402C80008BFB0646079A3146504600F0F5FA07460799504600F045FA07970B9B5A1B08D05046079902E0504607990B9A00F074FB07905046012100F0D6FA0D9B0546002BF3
:402CC0000ADD29461A46504600F066FB1E9B0546012B04DD00271BE01E9B012B13DC029B8BB9039BC3F313037BB9039B23F000473F0D3F0557B1099B0127013309930A9BE0
:402D000001330A9302E0002700E0029F0D9B43B12B6905EB8303186900F058FAC0F1200000E001200A9B184410F01F0008D0C0F12003042B02DDC0F11C0002E008D018463E
:402D40001C30099B0444034409930A9B03440A93099B002B05DD504607991A4600F06AFB07900A9B002B05DD294650461A4600F061FB0546109BEBB10798294600F0ADFBE1
:402D8000002817DA0023504607990A2200F0E0F90C9B0BF1FF3B0790002B00F06B813146002350460A2200F0D3F9069B0646002B33DC68E1059B002B26DC1E9B022B23DDF6
:402DC000059B0693069B73B929460522504600F0BFF905460798294600F07FFB002809DC01E000252E461F9B089C6FEA030B08E0B3462E46089B089A5C1C312313700BF105
:402E0000010BB14600260FE10C9B23B9059B0693089F079CC9E0059B0693002C05DD31465046224600F006FB0646AFB17168504600F042F90446326906F10C010232920028
:402E40000C30FEF757FF50462146012200F0F2FA814602E000002440B146089F079C29462046FFF7D5FA3146099000F13008204600F033FB4A4605902946504600F049FBCC
:402E8000C26803463AB919462046079300F025FB079B024600E0012250461946079200F040F9079A92B91E9B83B9029B03F0010363B9B8F1390F3B4607943ED0059B7C1CB5
:402EC000002BC4BF099B03F131083DE0059B002B04DA002AC446079408DC21E024D11E9B13BB029B03F00103F3B9F2E72146012250460597CDF8088000F09CFA29460790AF
:402F000000F0EBFA0028DDF808C0059B03DC07D118F0010F04D0B8F1390F0ED008F1010C7C1C87F800C07FE0002A07F101020EDDB8F1390F3B46079403D1392201371A709B
:402F400057E0144608F1010887F800806CE0089B1746D31A02F8018C069A93423AD021460A220023504600F0F3F84E450446314650464FF00A024FF0000304D100F0E8F83D
:402F8000064681466BE700F0E3F8494606460A225046002300F0DCF8814660E7214650460A22002300F0D4F8044620462946FFF72FFA089B00F1300807F8018B069AFB1AFD
:402FC0009342EBDB089BB146012AACBF9B1801331F46002621460122504600F02BFA2946079000F07AFA002803DC15D118F0010F12D03C4614F8013C621E392B09D1089BE2
:403000009A4204D10BF1010B3123089A02E01446F0E70133137007E03C4614F8013C621E302B01D11446F8E75046294600F079F8B9F1000F0CD02EB14E4503D05046314632
:4030400000F06FF85046494600F06BF800E0B3465046079900F065F80023209A23700BF101031360229B1BB11C6001E00A480FE008980DE0069B002B3FF7CAAE1E9B022B2E
:403080003FF7A0AEC4E61E9B022B3FF79BAEC4E615B0BDE8F08F00BF263C0000AFF30080004870472C84FF1F024B0146186800F0EFBA00BF2884FF1F70B5456A04460E4632
:4030C0003DB91020FFF7F0FF6062456085600560C560656AEB6843B1636ADB6853F8260078B1026843F8262017E020460421212200F0C0FA636AE860DB68002BECD1002075
:4031000070BD012101FA06F56A1D2046920000F0B1FA0028F3D04660856000230361C36070BD70B5446A06460D463CB91020FFF7BBFF7062446084600460C4603DB1736AEF
:403140006A68DB6853F82210296043F8225070BD2DE9F04106460C460F69984601F1140E0023DEF80000013385B2010C02FB0585514301EB1541ADB24FEA1148BB4205EB5F
:4031800001414EF8041BECDBB8F1000F1BD0A3689F4212DB616830460131FFF78DFF0546226904F10C01023292000C30FEF7A2FD21463046FFF7B5FF2C4604EB870301371A
:4031C000C3F8148027612046BDE8F081030C1B0413B90004102300E0002310F07F4F04BF0002083310F0704F04BF0001043310F0404F04BF80000233002803DB420003D599
:40320000581C70471846704720207047036813F007020BD0D90722D49A074BBF5B089B08036003604CBF01200220704799B209B91B0C102213F0FF0F04BF1B0A08321907FA
:4032400004BF1B090432990704BF9B080232D90702D45B0805D00132036010467047002070472020704710B50C460121FFF724FF01224461026110BD2DE9F74F14460A6925
:40328000236988469A42BEBF0B46A0461C46D8F81070D4F81090D8F80830D8F8041007EB09069E42C8BF0131FFF706FF00F114052B4605EB860C634503D2002243F8042B7F
:4032C000F9E704F1140208F1140102EB890301EB87070093009B01929A4257D2B2F800B0BBF1000F23D08946AE464FF0000859F8044BBEF800A0A3B20BFB03A34FEA144A7C
:40330000DEF8004043444FEA14480BFB0A84F24604EB13449BB243EA04434F454FEA14484AF8043B01D9D646E1E7CEF80480019B0432B3F802A0BAF1000F21D02C468946CB
:403340002B684FF00008B9F800E0B4F802B09BB20AFB0EBEA346F04443EA08434BF8043B59F8043BB4F804E01B0C0AFB03E3B94503EB18434FEA134801D25C46E3E7636040
:403380000435A7E75CF8043D13B9013E002EF9DC066103B0BDE8F08F12F003032DE9F04106460F46154607D0214A013B52F823200023FFF7CDFE0746AD1035D0746A3CB949
:4033C0001020FFF771FE7062446084600460C460D6F82480D8F808407CB9304640F27121FFF741FF0023C8F808000446036004E06D1019D0206870B10446EB07F8D5394614
:4034000022463046FFF738FF804639463046FFF788FE4746ECE7304621462246FFF72CFF002320600360E7E73846BDE8F08100BF303D00002DE9F0470C460746164623691C
:403440004FEA621A0AEB03094968A36809F101059D4202DD01315B00FAE73846FFF72CFE804600F114010023534504DA002241F823200133F8E72AEAEA73206901EB83038E
:4034800016F01F0204F1140101EB800E14D0C2F1200C00200E689A469640304343F8040B51F8040B714520FA0CF0F3D3CAF8040048B109F1020506E0043B51F8042B714598
:4034C00043F8042FF9D3013D3846C8F810502146FFF727FE4046BDE8F08703690A6910B59B1A11D192001430143183180A4453F8044D52F8041D8C4202D007D3012010BDE4
:403500008342F4D8002010BD184610BD4FF0FF3010BD2DE9F84307460C46084611461546FFF7DBFF061E08D138463146FFF7C4FD012303614661BDE8F883BCBF23462C4699
:4035400038466168BABF1D4601260026FFF7B4FD2B69C660266905F1140904F1140101EB860709EB830800F114054FF0000C51F8042B59F8044B93B29C44A3B2240CC3EB11
:403580000C03C4EB124202EB23429BB24FEA224CC84543EA02428E4645F8042BE7D8BE450ED25EF8043B9AB262441B0C03EB224392B242EA03424FEA234C45F8042BEEE7B4
:4035C00055F8043D0BB9013EFAE70661BDE8F8832DE9F3411C4601211546089F099EFFF76BFDC4F31302C4F30A5480460CB142F480120192EDB102A840F8085DFFF706FE5F
:40360000009B50B1019AC0F1200102FA01F10B43C240C8F81430019201E0C8F81430019B002B14BF02250125C8F81830C8F8105009E001A8FFF7EAFD019B0125C8F8143083
:40364000C8F81050203034B1A4F2334404443C60C0F1350009E0A0F2324008EB850338601869FFF7B3FDC0EB45103060404602B0BDE8F08138B502FB01F4214600F008F8E3
:40368000054618B100212246FEF73FFB284638BD70B5CC1C24F0030408340C2C38BF0C24002C064603DA0C233360002070BD8C42F9D3204A136810461946A1B10A68121B8F
:4036C0000ED40B2A03D90A608B188C501FE08B420BBF5A684A6802605A6018BF0B4616E00B464968E9E7144D2B681BB9304600F025F828603046214600F020F8421C034679
:40370000D1D0C51C25F0030585420AD11C6003F10B001A1D20F00700821A0AD05142995070BD3046E91A00F009F80130BBD02B46ECE770BDA084FF1F9C84FF1F38B5064C0A
:403740000023054608462360FCF7B0FC431C02D1236803B12B6038BDAC84FF1F70B54FF0FF0C4CF4E06C1CEA11541DBF1CEA135594EA0C0F95EA0C0F00F0DEF82C4481EAA8
:40378000030621EA4C5123EA4C5350EA013518BF52EA033541F4801143F4801338D0A0FB02CE4FF00005E1FB02E506F00042E0FB03E54FF00006E1FB03569CF0000F18BF00
:4037C0004EF0010EA4F1FF04B6F5007F64F5407404D25FEA4E0E6D4146EB060642EAC62141EA55514FEAC52040EA5E504FEACE2EB4F1FD0C88BFBCF5E06F1ED8BEF1004F4F
:4038000008BF5FEA500E50F1000041EB045170BD06F0004646EA010140EA020081EA0301B4EB5C04C2BFD4EB0C0541EA045170BD41F480114FF0000E013C00F3AB8014F1B2
:40384000360FDEBF002001F0004170BDC4F10004203C35DA0C341BDC04F11404C4F1200500FA05F320FA04F001FA05F240EA020001F0004221F0004110EBD37021FA04F6AF
:4038800042EB06015EEA430E08BF20EAD37070BDC4F10C04C4F1200500FA04F320FA05F001FA04F240EA020001F0004110EBD37041F100015EEA430E08BF20EAD37070BDC1
:4038C000C4F1200500FA05F24EEA020E20FA04F301FA05F243EA020321FA04F001F0004121FA04F220EA020000EBD3705EEA430E08BF20EAD37070BD94F0000F0FD101F0B6
:403900000046400041EB010111F4801F08BF013CF7D041EA060195F0000F18BF704703F00046520043EB030313F4801F08BF013DF7D043EA0603704794EA0C0F0CEA1355FB
:4039400018BF95EA0C0F0CD050EA410618BF52EA4306D1D181EA030101F000414FF0000070BD50EA410606BF1046194652EA430619D094EA0C0F02D150EA013613D195EAC5
:403980000C0F05D152EA03361CBF104619460AD181EA030101F0004141F0FE4141F470014FF0000070BD41F0FE4141F4780170BD70B54FF0FF0C4CF4E06C1CEA11541DBF86
:4039C0001CEA135594EA0C0F95EA0C0F00F0A7F8A4EB050481EA030E52EA03354FEA013100F088804FEA03334FF0805545EA131343EA12634FEA022245EA111545EA1065DC
:403A00004FEA00260EF000419D4208BF964244F1FD0404F5407402D25B084FEA3202B61A65EB03055B084FEA32024FF480104FF4002CB6EB020E75EB030E22BFB61A75461B
:403A400040EA0C005B084FEA3202B6EB020E75EB030E22BFB61A754640EA5C005B084FEA3202B6EB020E75EB030E22BFB61A754640EA9C005B084FEA3202B6EB020E75EB27
:403A8000030E22BFB61A754640EADC0055EA060E18D04FEA051545EA16754FEA06164FEAC30343EA52734FEAC2025FEA1C1CC0D111F4801F0BD141EA00014FF000004FF0BC
:403AC000004CB6E711F4801F04BF01430020B4F1FD0C88BFBCF5E06F3FF6AFAEB5EB030C04BFB6EB020C5FEA500C50F1000041EB045170BD0EF0004E4EEA113114EB5C04B1
:403B0000C2BFD4EB0C0541EA045170BD41F480114FF0000E013C90E645EA060E8DE60CEA135594EA0C0F08BF95EA0C0F3FF43BAF94EA0C0F0AD150EA01347FF434AF95EADE
:403B40000C0F7FF425AF104619462CE795EA0C0F06D152EA03353FF4FDAE1046194622E750EA410618BF52EA43067FF4C5AE50EA41047FF40DAF52EA43057FF4EBAE12E7A0
:403B80004FEA410212F5001215D211D56FF47873B3EB625212D94FEAC12343F0004343EA505311F0004F23FA02F018BF404270474FF00000704750EA013005D111F00040CE
:403BC00008BF6FF0004070474FF00000704700BF0000000000000000035B00402443004040000000305100403000C05100401000F0510040100000000140001000140140E5
:403C0000000800400140000A004C014000020050014020004300494E4600696E66004E414E006E616E003000496E66696E697479004E614E00504F534958002E0000000002
:403C4000000000000000F03F000000000000244000000000000059400000000000408F40000000000088C34000000000006AF8400000000080842E4100000000D0126341E3
:403C80000000000084D797410000000065CDCD41000000205FA00242000000E876483742000000A2941A6D42000040E59C30A2420000901EC4BCD64200003426F56B0C43EC
:403CC0000080E03779C3414300A0D8855734764300C84E676DC1AB43003D9160E458E143408CB5781DAF154450EFE2D6E41A4B4492D54D06CFF08044F64AE1C7022DB54416
:403D0000B49DD9794378EA440080E03779C34143176E05B5B5B89346F5F93FE9034F384D321D30F94877825A3CBF737FDD4F157505000000190000007D000000F8B500BF71
:403D4000F8BC08BC9E4670474D00000099010000F8B500BFF8BC08BC9E46704729000000703D00000881FF1F60030000480000000000000077000000650000006300000063
:403D80006E00000083000000960000009E00000096000000860000007B00000070000000590000003900000016000000020000001400000039000000520000005D00000031
:403DC000630000005F0000004D000000320000001F0000001A0000001F000000290000002F000000310000003900000047000000550000005E000000600000005D000000B1
:403E000057000000520000005000000052000000580000006000000068000000700000007400000076000000780000007A0000007A000000780000007700000079000000E9
:403E400079000000740000007100000078000000830000008C0000008D0000008A0000008B0000008A000000830000007A000000770000007C000000810000007F00000041
:403E80007B000000810000008D0000009500000095000000900000008E0000008D0000008A000000890000008E00000095000000970000009600000098000000A000000009
:403EC000A8000000AE000000B0000000B3000000B6000000B6000000AF000000A6000000A2000000A5000000AB000000B0000000B8000000BC000000C1000000CC000000A5
:403F0000D8000000EC000000FD000000FB000000FF000000F6000000AE000000600000005A0000007400000085000000A2000000CD000000F3000000F4000000C400000055
:403F40008F000000830000008F0000007D0000003F0000000A0000000C0000002E000000470000005C000000770000008F000000920000007C0000005E0000004E0000003D
:403F800047000000420000004100000045000000490000004B0000004C0000005400000064000000740000007F00000080000000790000007A000000820000008A000000E8
:403FC0008E00000089000000840000008800000087000000800000007F000000870000009D000000B9000000C8000000C5000000B9000000AF000000B0000000B8000000DE
:40400000BE000000BC000000AB000000930000007C000000A8000000B084FF1F01FF000000366E01C05D0000180000000000E02E000000000000000000000000000000006A
:4040400000000000000000000000000000000000143C00000000000000000000000000000000000000000000000000000000000000000000000000000000000000000000F0
:4040800000000000000000000000000000000000C883FF1F3B3C00003C3C00003C3C00003C3C00003C3C00003C3C00003C3C00003C3C00003C3C00003C3C0000FFFFFFFFEC
:4040C000FFFFFFFFFFFFFFFFFFFF000000000000000000000000000000000000000000000000000000000000000000000000000000000000000000000000000000000000CA
:40410000000000000000000000000000000000000000000000000000000000000000000000000000000000000000000000000000000000000000000000000000000000007F
:40414000000000000000000000000000000000000000000000000000000000000000000000000000000000000000000000000000000000000000000000000000000000003F
:4041800000000000000000000000000000000000000000000000000000000000000000000000000000000000000000000000000000000000000000000000000000000000FF
:4041C00000000000000000000000000000000000000000000000000000000000000000000000000000000000000000000000000000000000000000000000000000000000BF
:020000040003F7
:0200000480007A
:40000000016400400105014001090140340A0140180B0140040E0140020F014001170140011901400240014001410140034201400444014002460140044701400548014095
:40004000044C014002500140015101408B0DE608B140405449FF4AFF4BFF4F0150185A045D095F016040624064406540668068806A806C806E809201AE01B001B601BE0181
:40008000C015C5ECC602C807C9FFCAFFCBFFCD83CE03CF01D018D280D401D604D804DA04DB04DC09DD99DF01E040E240E440E540E680E880EA80EC80EE800F8017801D40FA
:4000C0001E804280478048014D044F81568057405D045E805F016602740177808602C210C480D011D218D6D0D880B820BE10D804DF011D108D10E802E8023380CC10A78072
:400100008780A780E6107C208C20DE01E0024610D0019E10A301B301E80127019F01AF01C820E8406302A301AE10D60201010D010003000000000000000001000080800041
:4001400080004000007F7F00000000000008080000001000030018010000000000000000000000000000000000000000000000000000000000000000000000000000000085
:40018000000000000000000000000000000000000000000000000000000000000000000000000000000000000000000000000000000000000000000000000000000000003F
:4001C00000000000000000000000000000000000000000000000000000000000000000000000000000000000000000000000000000000000000000000000000000000000FF
:4002000000000000000000000000000000000000000000000000000000000000000000000000000000000000000000000000000000000000000000000000000000000000BE
:40024000000000000000000000000000000000000000000000000000000000000000000000000000000000000000000000000000000000000000000000000000000000007E
:0200000490006A
:0400000000004005B7
:0200000490105A
:04000000BC90ACAF55
:0200000490303A
:02000000BA88BC
:0200000490402A
:4000000000000000000000000000000000000000000000000000000000000000000000000000000000000000000000000000000000000000000000000000000000000000C0
:400040000000000000000000000000000000000000000000000000000000000000000000000000000000000000000000000000000000000000000000000000000000000080
:400080000000000000000000000000000000000000000000000000000000000000000000000000000000000000000000000000000000000000000000000000000000000040
:4000C0000000000000000000000000000000000000000000000000000000000000000000000000000000000000000000000000000000000000000000000000000000000000
:0200000490501A
:0C00000000012E12306900012E2AEAF1E6
:00000001FF